:020000040800F2
:10000000980B0020890100086313000817100008EE
:100010006113000815030008E11400080000000047
:10002000000000000000000000000000671300084E
:10003000170300080000000065130008691300089A
:10004000A3010008A3010008A3010008A301000800
:10005000A3010008A3010008A3010008A3010008F0
:10006000A3010008A3010008A3010008A3010008E0
:10007000A3010008A3010008A3010008A3010008D0
:10008000A3010008A3010008A3010008A3010008C0
:10009000A3010008A3010008A3010008A3010008B0
:1000A000A3010008A3010008A3010008A3010008A0
:1000B000A3010008A3010008A3010008A301000890
:1000C000A3010008A3010008A3010008A301000880
:1000D000A3010008A3010008A3010008A301000870
:1000E000A3010008A3010008A301000800F002F822
:1000F00000F03AF80AA090E8000C82448344AAF188
:100100000107DA4501D100F02FF8AFF2090EBAE885
:100110000F0013F0010F18BFFB1A43F0010318473B
:1001200094360000B4360000103A24BF78C878C175
:10013000FAD8520724BF30C830C144BF04680C60ED
:10014000704700000023002400250026103A28BF35
:1001500078C1FBD8520728BF30C148BF0B60704739
:100160001FB51FBD10B510BD00F099F81146FFF77F
:10017000F7FF01F0C7F900F0B7F803B4FFF7F2FF9B
:1001800003BC00F0C1F80000094880470948004757
:10019000FEE7FEE7FEE7FEE7FEE7FEE7FEE7FEE737
:1001A000FEE7FEE704480549054A064B7047000094
:1001B000CB130008ED00000898050020980B0020E4
:1001C000980700209807002010B5431C02E010F8A3
:1001D000011B71B18107FAD14FF0013202C88C1AAC
:1001E0008C4314EAC211F9D0C01A0A0603D0C01E0B
:1001F00010BDC01A10BD0A0401D0801E10BD090236
:10020000FCD0401E10BD4FF000020429C0F0128047
:1002100010F0030C00F01B80CCF1040CBCF1020FB9
:1002200018BF00F8012BA8BF20F8022BA1EB0C018E
:1002300000F00DB85FEAC17C24BF00F8012B00F884
:10024000012B48BF00F8012B70474FF0000200B5AA
:10025000134694469646203922BFA0E80C50A0E8E9
:100260000C50B1F12001BFF4F7AF090728BFA0E897
:100270000C5048BF0CC05DF804EB890028BF40F863
:10028000042B08BF704748BF20F8022B11F0804FA5
:1002900018BF00F8012B70477047704770477546CC
:1002A00000F02CF8AE4605006946534620F00700E2
:1002B000854618B020B5FFF775FFBDE820404FF028
:1002C00000064FF000074FF000084FF0000B21F040
:1002D0000701AC46ACE8C009ACE8C009ACE8C0090D
:1002E000ACE8C0098D46704710B50446AFF30080F6
:1002F0002046BDE81040FFF740BF000000487047AF
:10030000340500207047000001491820ABBEFEE70D
:1003100026000200FEE7704772B6FEE770B504469D
:1003200000F0FEF80546601C02D004480078044442
:1003300000F0F6F8401BA042FAD370BD0000002088
:100340002DE9F84FDFF8B891002409F1040A0AF109
:10035000040B23460F270BF1040EC9E00125A5402D
:100360002A40AA427DD1674ED1F804C0ACEB060802
:10037000B44532D014DCBCF1030F3AD009DCBCF137
:10038000000F2AD0BCF1010F1CD0BCF1020F31D1FB
:100390001DE0BCF1110F17D0BCF1120F2AD119E0EA
:1003A000B8F5881F19D006DCB8F5803F15D0B8F530
:1003B000801F1FD111E0B8F5001F0ED0B8F5041F43
:1003C00018D10AE0CB6815E0CB681B1D12E0CB68A2
:1003D00008330FE0CB680C330CE08B682BB1012B9A
:1003E0004FF0080303D0456104E0042302E00561F7
:1003F00000E00023FF2A01D8064601E000F10406D0
:100400004FEA840501D9A5F12005D6F8008007FA46
:1004100005FC28EA0C0803FA05F548EA0508C6F8C1
:1004200000804D68ED0062D5374DAE6946F001069B
:10043000AE61AD6924F0030605F001050095334D6A
:1004400006EB050CDCF80850A607360F07FA06F88D
:1004500025EA0805DFF8B880404503D14FF00008D1
:1004600017E044E0DFF8AC80404502D14FF00108CE
:100470000FE0DFF8A480404502D14FF0020808E009
:10048000DFF89880404502D14FF0030801E04FF0BB
:10049000040808FA06F848EA0508CCF808804D6810
:1004A000D9F80060ED034D4601D5164300E09643B0
:1004B0002E604D68DAF80060AD03554601D516434D
:1004C00000E096432E604D68DBF80060ED025D466B
:1004D00001D5164300E096432E604D68DEF80060BB
:1004E000AD02754601D5164300E096432E60641CAC
:1004F0000D682A46E5407FF431AFBDE8F88F000073
:1005000000040140000011100010024000000140F2
:1005100000080140000C014000100140001401409F
:1005200001488068704700000000002070B504009A
:1005300025D094F83D00002520B984F83C50204691
:1005400000F04EF9242084F83D002068016821F075
:10055000010101602068016841F4004101602068E8
:10056000016821F40041016000F08AFA4D4A616897
:10057000914201D84C4900E04C49884201D2012007
:1005800070BD4B492368B0FBF1F15E6826F03F0671
:100590000E435E606368934206D94FF496735943E5
:1005A0004FF47A73B1FBF3F12368491C1E6A26F0FD
:1005B0003F06314319626168914210D84900401EDC
:1005C000B0FBF1F2521CC2F30B02042A01D2042048
:1005D00022E0B0FBF1F0401CC0F30B001CE0A2686D
:1005E000F2B301EBC10303EB0116431EB3FBF6F3B9
:1005F0005B1C43F480431B0549D092B301EBC1025D
:1006000002EB0111401EB0FBF1F0401CC0F30B00E7
:1006100040F4804040F400402168CA694CF6FF7302
:100620009A431043C861D4E9071001432068026867
:1006300022F0C00211430160D4E9030101432068A4
:10064000826848F2FF339A4311438160D4E905017F
:1006500008432168CA6822F0FF021043C86001E025
:100660000EE016E02068016841F001010160256498
:10067000202084F83D00256384F83E50002070BDA2
:1006800001EB4106431EB3FBF6F35B1CB3E701200D
:10069000C2E701EB4101401EB0FBF1F0401CC0F38A
:1006A0000B00B7E7A086010080841E0000093D0012
:1006B00040420F002DE9F84F1F4690468A460446F7
:1006C000DDF82890FFF72CFF054694F83D00202820
:1006D0007FD11923012240492046009500F028FDD2
:1006E000002876D194F83C00012872D0012084F8CB
:1006F0003C0020680168C90703D1016841F001018D
:1007000001602068016821F400610160212084F803
:100710003D00102084F83E0000262664C4F82480A2
:100720006785608D20852D48E0622B464A465146FC
:10073000204600F089FC90B92068416980690090EA
:1007400036E02A464946204600F071FD50B1206C43
:10075000042804D12068016841F40071016001207F
:10076000BDE8F88F606A216800780861606A401C03
:100770006062618D491E6185218D491E89B2218586
:1007800022685369DB435B070BD451B100781061D9
:10079000606A401C6062608D401E6085208D401E36
:1007A00020852A464946204600F09CFC0028CED1F0
:1007B000208D0028C5D154F83D0B016841F400712B
:1007C0000160202004F81E09E67766770020C7E75D
:1007D000FFE70220C4E70000020010000000FFFF56
:1007E00010B586B00021009101910291039100683B
:1007F000104988421BD1104CA06940F00800A0614C
:10080000A069694600F0080004904FF44060009031
:1008100012200190032003900848FFF791FDE06942
:1008200040F48000E061E06900F48000049006B0CC
:1008300010BD00000058004000100240000C0140B4
:1008400002488168027811448160704700000020EE
:10085000074810B5016841F010010160032000F065
:1008600067F80F2000F006F800F024F8002010BD13
:100870000020024070B50D4D04464FF47A7128787F
:10088000B1FBF0F00A490968B1FBF0F000F0CEFAD4
:1008900048B9102C07D200222146501E00F028F83B
:1008A00000206C6070BD012070BD000000000020C1
:1008B0000C0000200C4808B5816941F001018161FC
:1008C000816901F001010091C16941F08051C1616C
:1008D000C06900F0805000900448416821F0E06158
:1008E00041F00071416008BD00100240000001406D
:1008F000F0B40E4B1B680C46C3F30223C3F107058B
:10090000042D00D90425191D072901D2002300E078
:10091000DB1E012606FA05F1491E214099409E4042
:10092000761E16403143F0BC00F0DBBD0CED00E05C
:10093000064900F0070208684FF6FF03184040EA36
:100940000220034A10430860704700000CED00E0ED
:100950000000FA052DE9F0470F46050061D0434E2F
:10096000306800F00700B84209D2306820F0070074
:1009700038433060306800F00700B84251D1286831
:100980003B4C810712D5400703D5606840F4E06016
:1009900060602878000703D5606840F460506060AC
:1009A0006068A96820F0F000084360602878C007FC
:1009B00028D06868012810D02168022810D0890743
:1009C00000292EDA616821F0030101436160FFF71D
:1009D000A7FD804641F288390DE021688903EFE7E1
:1009E0008901EDE7FFF79CFDA0EB0801494502D91D
:1009F0000320BDE8F0876068696800F00C00B0EB88
:100A0000810FEFD1306800F00700B8420BD9306891
:100A100020F0070038433060306800F00700B8422B
:100A200001D00120E5E72878400705D56068E9682E
:100A300020F4E060084360602878000706D560680D
:100A4000296920F4605040EAC100606000F028F895
:100A50006168084AC1F30311515CC8400649086047
:100A600006480068FFF706FF0020C2E700200240AA
:100A700000100240FB2400080C00002004000020AD
:100A80000448054900684968044AC1F30221515CE1
:100A9000C84070470C000020001002400B250008E1
:100AA00012A185B00FC98DE80F0014A0144A006888
:100AB00004905168134801F00C03042B10D0082B4C
:100AC0000ED1C1F38343C9031DF803000AD5516851
:100AD00004AAC1F34041515C0A4A5043B0FBF1F013
:100AE00005B0704708494843FAE7000002030405CF
:100AF000060708090A0B0C0D0E0F1010010200006A
:100B00000010024000127A0000093D002DE9F84F64
:100B1000040070D02078C04DC00749D06868C0F389
:100B20008100012807D06868C0F38100022809D13C
:100B30006868C00306D52868800339D56068002836
:100B4000E7D035E06068B0F5803F0BD010B1B0F56C
:100B5000A02F11D0286820F480302860286820F465
:100B6000802002E0286840F480302860606890B1FE
:100B7000FFF7D6FC06460AE0286840F4802028608B
:100B8000F0E700BFFFF7CCFC801B642873D828680F
:100B90008003F7D50CE0FFF7C3FC064605E000BF75
:100BA000FFF7BEFC801B6428F0D828688003F7D4C8
:100BB00020789A4E80074FF001094FF0000839D590
:100BC000686810F00C0F07D06868C0F38100022835
:100BD00009D16868C00306D42868800714D5206945
:100BE000012808D110E02069B0B1C6F80090FFF7E5
:100BF00097FC074605E00AE1FFF792FCC01B0228BC
:100C0000C4D828688007F7D52868616920F0F80003
:100C100040EAC10028600DE0C6F80080FFF780FCC4
:100C2000074604E0FFF77CFCC01B022823D8286895
:100C30008007F7D4207800072CD57948A169D9B16D
:100C4000C0F80090FFF76CFC074604E0FFF768FC73
:100C5000C01B02280FD8686A8007F7D571484FF487
:100C6000FA510068B0FBF1F0009000BF0098411EFF
:100C70000091FAD20EE080E0C0F80080FFF750FC4F
:100C8000074604E0FFF74CFCC01B022875D8686AD1
:100C90008007F7D42078400760D5E8690027C000B6
:100CA00008D4E86940F08050E861E869012700F065
:100CB000805000905C480168C90513D401688346E0
:100CC00041F480710160FFF72BFC824606E000BF13
:100CD000FFF726FCA0EB0A0064284ED8DBF80000E2
:100CE000C005F5D5E06801280AD008B1052813D061
:100CF000286A20F001002862286A20F0040002E03F
:100D0000286A40F001002862E06841F2883B98B10F
:100D1000FFF706FC82460BE0286A40F004002862D8
:100D2000EEE700BFFFF7FCFBA0EB0A0159455AD8DC
:100D3000286A8007F6D50CE0FFF7F2FB824605E053
:100D4000FFF7EEFBA0EB0A0159454CD8286A800753
:100D5000F6D41FB1E86920F08050E861E06988B3FB
:100D60006968C1F38101022944D00228C6F8608075
:100D700004D0FFF7D5FB044638E034E0FFF7D0FBA2
:100D8000074604E0FFF7CCFBC01B02282BD82868DD
:100D90008001F7D4206AB0F5803F05D16868A1686A
:100DA00020F4003008436860D4E90801084369680A
:100DB00021F4741108436860C6F86090FFF7B0FB37
:100DC000044606E025E000BFFFF7AAFB001B02284F
:100DD00009D828688001F7D51BE000BFFFF7A0FB0A
:100DE000001B022802D90320BDE8F88F2868800183
:100DF000F4D40EE00128F7D06868226A00F480314C
:100E0000914204D1616A00F47010884201D001203F
:100E1000EAE70020E8E7000000100240000042423C
:100E2000800442420C0000200070004010B5401EBB
:100E3000B0F1807F01D3012010BD4FF0E02460614C
:100E40000F21601700F04DFB0020A06107202061FA
:100E5000002010BD70B590F83C20012A26D0012456
:100E600080F83C40022280F83D2003685A689D6863
:100E700022F070060A6832435A600D4B02689A42AB
:100E800008D0B2F1804F05D00A4B9A4202D00A4BEB
:100E90009A4204D1496825F080031943916080F893
:100EA0003D40002180F83C10084670BD022070BD16
:100EB000002C0140000400400008004010B5040070
:100EC00003D094F83D0010B107E0012010BD0020D0
:100ED00084F83C00204600F01FF8022084F83D0012
:100EE000211D206800F072FA012084F8460084F881
:100EF0003E0084F83F0084F8400084F8410084F804
:100F0000420084F8430084F8440084F8450084F8E3
:100F10003D00002010BD000008B500680649884269
:100F200008D10648816941F400618161806900F45B
:100F30000060009008BD0000002C0140001002403D
:100F400070B5044690F83C00012817D0012584F8BC
:100F50003C50022084F83D002068826822F077022D
:100F600022F47F4282600868502830D00DDC2028AF
:100F70004DD005DC98B310283BD148E0022070BD6D
:100F8000302844D0402834D139E0602828D0702857
:100F900006D0B0F5805F2CD0B0F5005F29D10AE013
:100FA000CB68D1E90121206800F046FA2068816809
:100FB00041F0770109E0CB68D1E90121206800F018
:100FC0003BFA2068816841F48041816011E0CA6881
:100FD0004968206800F042FA5021206807E016E0D6
:100FE000CA684968206800F04AFA6021206800F069
:100FF0002DFA84F83D50002084F83C0070BDCA688A
:101000004968206800F02AFA40212068EFE722684A
:1010100001461046EBE7FEE701684A69D2435205F4
:101020000FD46FF480624A61002140F8301F202203
:1010300042738173026942F004020261017301206C
:101040007047002070470000F8B50446C06A1E468D
:101050000D461746082807D0012805D010F5803F17
:1010600002D0206B122804D12068016841F48071FD
:101070000160134600224FF001112046009600F057
:1010800057F840B120680068C00502D54FF40070E1
:1010900020640320F8BD2069B0F5804F0ED00620F3
:1010A000216800EAD51040F0F000086133463A4666
:1010B0000B49204600F070F878B902E005F0FE0018
:1010C00000E0E8B221680861054933463A46891FC5
:1010D000204600F061F80028DCD00120F8BD0000B7
:1010E0000800010070B516460D4604460DE0204686
:1010F000FFF792FF08B1012070BD681C05D0FFF713
:101100000FFA801BA84207D835B120684069C04358
:101110004007ECD4002070BD002044F8300F20219F
:101120006173A073216941F0200121612073E2E71E
:101130002DE9F0471E4690460D460446C1F3074789
:10114000DDF8209008E0701C06D0FFF7E9F9A0EB6D
:101150000900B0420FD876B12068012F18D08069FD
:1011600025EA00000004000C14D000214145EAD01B
:101170000020BDE8F087002044F8300F2021617383
:10118000A073216941F02001216120730120F0E763
:101190004069E5E70121E9E72DE9F0479A469146E4
:1011A0000E46044600254FF02008C1F3074725E00E
:1011B00020684069C043400514D42068016841F4A8
:1011C0000071016021686FF480604861256384F8D4
:1011D0003D8084F83E50206C40F00400206484F888
:1011E0003C501FE0B9F1FF3F08D0FFF799F9A0EBA1
:1011F0000A0149450CD8B9F1000F09D02068012F28
:1012000013D0806926EA00000004000C0BD0CFE761
:1012100044F8305F84F80D80A573206940F0200009
:10122000206125730120BDE8F0874069EAE770B5C9
:1012300016460D4604460DE02046FFF7EDFE08B1C8
:10124000012070BD681C05D0FFF76AF9801BA84219
:1012500007D835B120684069C0430006ECD40020AF
:1012600070BD002044F8300F20216173A073216904
:1012700041F0200121612073E2E700000D4808B52C
:10128000816941F020018161816901F020010091B3
:10129000816941F008018161816901F008010091D3
:1012A000816941F004018161806900F004000090CF
:1012B00008BD0000001002400D4810B50B49016048
:1012C0000C49416000214FF480428160C0E9031263
:1012D00041618161C1610162FFF728F9002803D0F3
:1012E000BDE81040FFF718B810BD000000580040DE
:1012F00018000020A086010010B586B00024174811
:101300000094019402940394049413490594016099
:101310004721C0E901144FF6FF71C0E9031444618D
:101320008461FFF7CBFD08B1FEF7F6FF4FF4805064
:10133000009069460948FFF703FE08B1FEF7ECFF8D
:10134000049404A905480594FFF784FD002801D002
:10135000FEF7E2FF06B010BD002C01406C0000203B
:10136000FEE7FEE770477047FFF76ABA30B58FB007
:1013700028216846FEF769FF14210AA8FEF765FFD9
:1013800001210804CDE900100024029402250491F3
:10139000CDE907504FF4E01009906846FFF7B6FB1F
:1013A00008B172B6FEE70F20CDE90A054FF4806060
:1013B000CDE90C4002210AA80E94FFF7CBFA0028D1
:1013C00001D072B6FEE70FB030BD7047F0B50268CD
:1013D000164B174C174D4FF08047984205D0B84236
:1013E00003D0A04201D0A84203D122F070064A687F
:1013F0003243984205D0B84203D0A04201D0A8425F
:1014000003D122F44074CA6822434C6922F080025E
:10141000224302608A68C2620A688262984201D1ED
:101420000969016301214161F0BD0000002C014008
:10143000000400400008004010B5846842EA03221E
:1014400024F47F440A432243826010BD826822F064
:1014500070020A4342F007018160704710B5036AC9
:10146000046A24F001040462846924F0F00444EA6C
:10147000021423F00A020A438461026210BD10B50F
:10148000036A23F0100303628369046A23F4704340
:1014900043EA023224F0A00343EA011182610162AF
:1014A00010BD00000D4900220B685A620A681368DB
:1014B00043F00103136009684A6A8242FCD3086A58
:1014C00041F21112104207D1086A9210104203D162
:1014D000086820F001000860704700006C000020E0
:1014E000FEE70907090E002804DB00F1E02080F880
:1014F0000014704700F00F0000F1E02080F8141D88
:1015000070470000A8B0FFF7A3F9FFF72FFFFFF720
:10151000B5FEFFF7D1FEFFF7EFFE02A800F074F86A
:1015200002A800F08BF802A800F0B0F96420FEF7E2
:10153000F5FE02A800F082F82D4902A800F0AFF9EC
:101540002CA30A22002102A800F05AF902A800F0F8
:101550009DF94FF47A70FEF7E1FE294E80246FF07A
:101560002F09102506F1200706F1400802A800F017
:1015700065F84C4501DD641E00E08024CDE900568D
:101580001023A1B21A4602A800F042F904F110009B
:10159000CDE9005781B210231A4602A800F038F9AD
:1015A00004F12000CDE9005881B210231A4602A8A8
:1015B00000F02EF9134902A800F071F910486030CC
:1015C000FEF702FEC006000EC0F1800000EBD070F6
:1015D0000B4BC0F3470160332D2202A800F010F935
:1015E00002A800F053F92820FEF798FEBEE700009D
:1015F0001325000854657374696E672E2E2E000043
:101600008E240008F42C000810B50446084B094A43
:10161000094900F08BF9204600F0D7FC0021204654
:1016200000F0E3FC2046BDE8104000F007B80000E1
:10163000E52300088D2000085036000801680A7C68
:1016400090F83810406B5143C900FEF7DCBD2DE91E
:10165000F041044690F870001F4615460E4630B122
:10166000012809D002280CD0032815D10FE0E16D24
:1016700020468847284408E0E16D20468847301A14
:1016800009E0E16D20468847281A85B204E0E16D43
:1016900020468847304486B22846A4F86460A4F8FF
:1016A000660039460025204600F036FB010003D0D5
:1016B000204600F061FA85B22846BDE8F0810000BE
:1016C0003FB581B0044690F88C00089900283AD0C4
:1016D000BDF81000002836D0012811D9022902D007
:1016E000032907D00CE0BDF80820101A401CADF803
:1016F000080005E0BDF80C20101A401CADF80C00E5
:1017000011F0010521D0B4F84810BDF8080081425D
:1017100019D8B4F84A10814215D9B4F84E30B4F84B
:101720004C2004A90DF10C0000F098F900280AD013
:101730000095206BBDF81030BDF80C208568BDF811
:1017400008102046A84705B030BDB4F84C10BDF8CD
:101750000C008142F7D8B4F84E108142F3D9B4F8A6
:101760004A30B4F8482004A902A8DDE72DE9FF4F6C
:1017700081B090F89270DDF838901D468846064694
:101780009FB10020834603984146401C80B20090E0
:1017900008EB050083B23046039A00F05FF800289A
:1017A0002BD001244FF0000A23E00120EAE700BF1C
:1017B00099F80000204202D086F8927004E096F872
:1017C000910048B986F892B00123CDF800A04146B7
:1017D0003046039AFFF774FF08F101001FFA80F802
:1017E000600010F0FF0402D1012409F101096D1E0F
:1017F000ADB2002DDCD186F8927005B0BDE8F08F57
:1018000030B4024C446030BC00F055B9512000089F
:101810002DE9F84F8246DDE90A57D81DC0F3CC0800
:10182000501980B21C460090081983B216468946AA
:10183000504600F013F800280ED00BE02346324645
:10184000494650460097FFF791FF761C6D1E4744AE
:10185000B6B2ADB2002DF1D1BDE8F88F70B50D462E
:101860001E460446B0F84E10B0F84C00049B00F041
:10187000B0FA002809D0B4F84A10B4F8480033464A
:101880002A46BDE8704000F0A4BA70BD10B5044609
:1018900000F02FFB2046BDE8104000F09EBB10B5C5
:1018A0000446806D884209D004F17400A16500F0FF
:1018B000EBFA2046BDE8104000F054B810BD00001F
:1018C0000149C165704700002D1B00080021A0F8E8
:1018D0005010A0F854104FF6FF71A0F85210A0F865
:1018E0005610016B4968084770B5044600250498F6
:1018F000A565E362616384F8382084F8395084F880
:101900006D5084F89150012184F8921084F893105E
:1019100020630168204688472046FFF7D7FF20460E
:10192000FFF7CEFF84F8705070BD00007CB50C4608
:10193000009313460546084A084900F05EFB01A8DB
:1019400000F09CFA0146064B00949DF804202846BE
:10195000FFF7CAFF7CBD0000B5210008DD220008AA
:10196000ED1D000810B5816D00291AD090F9813065
:1019700080F88E3090F9822080F88F2090F88D10BA
:1019800000290ED001290DD090F97E4090F98010E9
:101990000C449C4201DD80F88E408A4201DD80F8D3
:1019A0008F1010BD90F983108B4201DA80F88E10F1
:1019B00090F98410F1E72BB1012B05D0022B06D052
:1019C000104402E0084400E0801A80B27047401AD8
:1019D000FBE72BB1012B05D0022B06D0401A02E009
:1019E000104400E0084480B27047801AFBE738B525
:1019F0000446B0F856000090B4F85230B4F85420C1
:101A0000B4F850102046FFF729FF18B3012084F8DE
:101A10008C00B4F84810B4F85000814201D2A4F808
:101A20004800B4F84A10B4F85200814201D9A4F831
:101A30004A00B4F84C10B4F85400814201D2A4F822
:101A40004C00B4F84E10B4F85600814201D9A4F805
:101A50004E0038BD002084F88C0038BD30B50488B5
:101A60000D882544ADB2AC4205D99C4202D25D1E20
:101A7000ADB200E014469C4201D2954201D800204C
:101A800030BD944200D214469D4200D91D460480C8
:101A9000281B0880012030BD38B5C58F049C0094F8
:101AA000521BC46A92B2A04738BD38B5049C00945A
:101AB000FFF7F2FF38BD2DE9F0471C4691468846F6
:101AC000064600F0E0FC00254FF6FF7772682178AB
:101AD000304690470346B84225D0641CA3F57F40AA
:101AE000FE38F3D04A4641463046FFF7B0FD96F83F
:101AF000701031B1012907D0022908D003290FD174
:101B00000AE008EB000104E009EB000106E0A8EBA5
:101B100000011FFA81F803E0A9EB00011FFA81F927
:101B2000284485B2D2E72846BDE8F08700207047F8
:101B300010B50C4600F006F80122641EA240801A7F
:101B400040B210BD30B50568047B2A78E2406318C6
:101B5000DBB2082B09D36D1C05602D78C4F1080495
:101B6000A5401543083BEAB2DBB201248C40641E59
:101B700014400373204630BD2DE9F843054600F1BB
:101B8000600400F00CF915F96B6F2046E97BFFF754
:101B9000CFFF8146297C2046FFF7CAFF0746697CB4
:101BA00020466B3DFFF7C4FF804694F90A000028E9
:101BB00057DDF019404247B2237CA0883A46494697
:101BC000FFF7F9FEA080237C3A46E0884946FFF7FC
:101BD00000FFE080A188277C02460B4637B1012F29
:101BE0000AD0022F40D0032F0FD146E094F90A709B
:101BF00030443B449BB207E0891B491C94F90A70AE
:101C00005B1C89B29BB2384480B200902846FFF733
:101C100025FE30B30020207284F8090095F8761074
:101C20002046FFF78FFF814695F877102046FFF793
:101C300089FF074600224946284600F027F801227E
:101C40003946284600F022F801212046FFF77AFFA6
:101C50000028EFD194F90900B042DFDBA07B85F8C2
:101C600092004046BDE8F88394F90A705B1CC91BDA
:101C7000491C89B29BB2921B04E094F90A70334468
:101C80009BB2D21B521C92B2401CBDE72DE9F74F0C
:101C900084B00D46049C94F8687094F869806034B0
:101CA000A07AC01BC6B20196B54200D201954FFA88
:101CB00088F279B2A088B4F806B0237C92468946AF
:101CC000FFF779FE0290237C524649465846FFF7BB
:101CD00080FE0246069808B1A17B02E0607B50B905
:101CE000E17B049880F89210207C0090DDE90131BE
:101CF0000498FFF7E5FCB54207D3A81BC5B208F16D
:101D00000100002700F0FF08CAE77819207284F864
:101D1000098007B0BDE8F08F70B50D460146806DB3
:101D20001730FF2D10D8612D02D3B1F8881003E0D1
:101D3000412D02D3B1F886100844417819B30278D6
:101D4000AA42F9D1801C70BDB1F88A100C18264641
:101D50000021304600F019F804440221304600F01A
:101D600014F8361DA842F3D34FF6FF72207802EA2A
:101D700000216078084306D0A84201D1E01C70BD64
:101D8000A0780444F2E7002070BD08444FF6FF72CB
:101D90000178407802EA0121084480B2704730B5EA
:101DA000054600F1600401660020207315F8781FD5
:101DB0002046FFF7C7FEA07269782046FFF7C2FEF3
:101DC000E072A87EA07310B10020E07330BD012046
:101DD000FBE78A4205D2834201D89A4203D9012007
:101DE00070478342F9D8002070470000F0B502F038
:101DF00007060124B440002590F892E0E7B2DDF830
:101E000014C02C46BEF1010F01D83D4600D03C461F
:101E1000076822F00702BCF1000F3F7C07FB02F7C6
:101E2000BAB2476B3A44114409D108785B1E284383
:101E300060401B0401F8010B1B0CF6D1F0BD0A78C1
:101E4000761C2A436240A3F101030A7016F00706CC
:101E50009BB206D06A06150E6206140E002BEED158
:101E6000F0BD428F114490F89220012A03D800BFA0
:101E70004FF00105F2D04FF00104EFE708210170A7
:101E8000004870473401002070B505460878287076
:101E9000487868708878A870C878E87008792871E0
:101EA0004879687188790C46A871E079E871207AE0
:101EB0002872607A6872A07AA872E07AE872207B51
:101EC0002873607B6873A07BA873E07BE873207C39
:101ED000287411212046FFF758FF688213212046FD
:101EE000FFF753FFA88215212046FFF74EFFE88237
:101EF00070BD2DE9F843064690F8387090F83950D7
:101F0000006800244FF6FF7890F811903168304651
:101F10002A460B7C716B04FB03FC1FFA8CFC08EA5D
:101F2000CC0C61440091002100F040F8641C6D1C51
:101F3000E4B2EDB2BC4201D24D45E7D3BDE8F8832F
:101F4000F0B590F838204FF6FF75036805EAC20136
:101F50008187197C05EAC101418790F8394005EA7B
:101F6000C401C1875E7CA718B74201D9321B92B267
:101F700005EAC20220F8401F11444180998A8180FD
:101F8000D98AC180F0BDFFF7DBBF0021A0F848105F
:101F9000B0F84410A0F84A10B0F84010A0F84C1067
:101FA000B0F84210A0F84E10FFF721BD1CB58DF817
:101FB00005108DF80620049C8DF804300094012251
:101FC00084686B460F21A0471CBD30B48468002391
:101FD000A44630BC1A460A21604730B48468002306
:101FE000A44630BC1A461021604730B484680023F0
:101FF000A4460A4630BC0B2160472DE9F041154646
:102000000E460446069F00F009F86761A660C4E921
:1020100003532046BDE8F04100F012B8002140F81B
:10202000081B064A026042608260C260C176817706
:102030000161FF21017780F820107047E12300083B
:1020400030B484680023A44630BC1A460921604796
:10205000080001D00A2801D14FF6FF70704730B454
:1020600004690023A44630BC1A461921604713B501
:102070000122046901AB1721A0471CBD30B40469DB
:102080000023A44630BC1A461821604738B51848CA
:1020900018290DD004DC142907D0172923D10AE010
:1020A000192916D020291ED11FE0FFF705F91CE0E1
:1020B0000021017019E00F4C08E000BF017813F80F
:1020C000015B6554491C521E0170D2B2002AF5D141
:1020D0000BE04FF47A7100910378064A78210648A4
:1020E000FEF7E8FA08B1002038BD012038BD000035
:1020F00010000020B40000201800002030B4C46894
:102100000023A44630BC1A461921604730B4C46885
:102110000023A4460A4630BC1621604730B4C46888
:102120000023A4460A4630BC1521604730B4C46879
:102130001346A4460A4630BC17216047F8B50C4642
:102140004FEA000514F8011B182924D00EDC1529CC
:1021500019D0162917D0172923D120788DF800001F
:102160006A4601212846FFF7E1FF0AE0192912D04B
:10217000FE2916D122788DF800202921284600F06A
:1021800066F9641CDEE722788DF80020EE680023F3
:102190002846B047F5E70023EE681A462846B047C0
:1021A000D0E7F8BD30B4C4680023A44630BC1A465A
:1021B000182160472DE9F041DFF8B080144606464B
:1021C000A1F11402002798F800001D46062A4AD201
:1021D000DFE802F02F03161B3E4310B13046FFF735
:1021E0003EFF3046FFF74AFF00213046FFF73FFF32
:1021F00021463046FFF73BFF012088F8000029E028
:1022000021463046FFF733FF24E050B13046FFF758
:1022100026FF06E01821304600F01FF9183CE4B212
:102220001835182C2A46F5D82146304600F015F905
:102230000EE096F82400FF2802D1782086F82400CA
:1022400037692B4622463046BC46BDE8F041604720
:1022500088F800700120BDE8F0810028F8D03046F1
:10226000FFF7FDFEF4E70020F5E700001100002075
:1022700070B50023456904461A462821A847002363
:10228000E5681A4614212046A84701224B21204622
:1022900000F0DDF8206829210279204600F0D7F807
:1022A00000224B21204600F0D2F820682921027933
:1022B000204600F0CCF801224B21204600F0C7F860
:1022C0002068292142792046BDE8704000F0BFB85F
:1022D0000160897C80F822107047000070B50C46C0
:1022E000054600F019F888B9092C0BD00A2C01D04A
:1022F000002070BD2846FFF7BBFF05492846FFF7C1
:102300001DFF03E003492846FFF7E2FF012070BDEF
:1023100082360008843700082DE9F0411E46144635
:1023200005460B2908D00D290ED00E291ED00F29E5
:1023300027D00020BDE8F0811AB12849FFF7FEFE42
:102340004AE02649491FF9E74AB124490C31FFF711
:10235000F5FE286890F8130085F822003CE01F493C
:10236000491DFFF7EBFE2868807CF5E7FFF71AFFB1
:1023700081212846FFF7D2FE21462846FFF7C6FEF8
:1023800027E0FFF70FFF707995F8221001EBC000EE
:10239000C7B240212846FFF7C1FE102040EA1711BE
:1023A0002846FFF7BBFE07F00F012846FFF7AEFEF9
:1023B000B07940F0B0012846FFF7A8FE30793268C6
:1023C000C006010E2846FFF7B1FE641E14F0FF049C
:1023D000F4D12846FFF792FE0120ABE761360008F2
:1023E0000020704710B54D2919D00CDC2B2918D0CE
:1023F00004DC292920D02A290ED114E02D291FD050
:102400004C2909D10BE0002250291DD051291BD0A5
:10241000522919D0532917D0012180F82710012003
:1024200010BD00BFFBE700204FF4A07100BF401CAF
:1024300080B28842FAD3F2E70120FDF76FFFEEE7A2
:102440000520FFF72FF8EAE780F82720E7E730B408
:1024500044690023A44630BC60472DE9F04115468D
:102460000E460446FFF70AFE40212046FFF7FFFD17
:1024700027692B46324617212046B8472046BDE83B
:10248000F041FFF7ECBD002180F826107047800076
:102490008000FE3FC001A00290048C188360F0070A
:1024A00000020001FF7F80008000A000400080004B
:1024B000FF7F8000FC1F0000F80F0808F80F1004D1
:1024C000FF7F0800FE3E88228422A23E41220804AB
:1024D0000804080218022A118A20CA7F094008004D
:1024E000883F8820882088208820883F88203633AD
:1024F00032333037303331303238000000000000E2
:1025000000000001020304060708090000000001A2
:10251000020304BF0003020304030504060A00FECD
:1025200007FE07000142028807C420050062072158
:10253000073943C7A00422079B52476209230E3D77
:10254000424F294906A53228A52401240C3D4257B3
:10255000B6D4B624D92200250C3D424FA474ABB4A6
:10256000480900260D3D424F9644495649A4480962
:1025700027061953C7002808BB425752AA15290934
:10258000BB424756AA94002A0A2D4647965406A5F0
:102590002D2B0A2D4657180D5218012C079B3E8FE4
:1025A00052022D060D4EC7202E089B3E4FB224002E
:1025B0002F083D4267AD6308300B3D425796D46CFF
:1025C000492D02310A3D4257262561D320320C3D68
:1025D00042CF92859194858300330C3D42C720669B
:1025E00099AA250B00340C3D425F2625A564D0C274
:1025F00004350B3D42C73131855AB200360C3D429D
:1026000097948589494B1600370B3D42C720666178
:1026100056CC00380C3D42CF9269C99269C9023943
:102620000C3D42CF92498A126691043A0ABB3E4F52
:10263000B2A4C992003B09BB3E4FB2A44A093C0870
:10264000BC425FD4D8003D081D4AC7A00E023E0818
:10265000BC4247D8D4063F0A3D42CF9235E65004EB
:10266000400C3D42CF92494B62491700410C3D421C
:102670005796D4B461C8B400420D3D42C71055A26C
:1026800064AA448302430A3D42CF92896DC9024441
:102690000F3D42C71055A2244AA2241A1400450B2C
:1026A0003D42C7311C92301C04460A3D42C7311CD2
:1026B00092B008470B3D42CF9289A52D5900480A98
:1026C0003D4247661B86CC164908BB42C7127519A6
:1026D0004A0A3D42D716B64491044B0D3D42472667
:1026E00025252D892A59004C083D4247D8E3204D25
:1026F0000B3D4247A62D4BA2D9024E0C3D4247A6A8
:102700004D4A226D5A004F0A3D42CF92794B160036
:10271000500C3D42C79064DAA0844500510A453E02
:10272000CF9279A9AC01520D3D42C79064DAA094D2
:102730002A5900530B3D42CF92A9AB962C00540965
:102740003D42C720853D0155093D4247E65BB20049
:10275000560D3D4247664B4A4994641100570A3D65
:102760004247E69228C92D580B3D4247A625B54A57
:102770004D0B590A3D4247A625B5B0095A0A3D42BC
:10278000C720661D07015B08BB42C710751A5C08AD
:102790003D424798760C5D08BB42C7D469085E0885
:1027A0001D525796D4025F060D3EC7206006125B8D
:1027B0004714610A2D42CF9A0C5A3204620B3D42F3
:1027C0004758316993A200630A2D42CF928959B2CA
:1027D00000640A3D4267C5B4498A12650A2D42CF9A
:1027E000920D43BA00660B3D429754C98628AC014E
:1027F000670C3D3ACFA069C9106AC902680A3D4218
:1028000047583169B6006908BB424F28B50C6A0BBE
:10281000CC3A5FACD5242951006B0B3D424758930D
:1028200092A992056C08BB4287D4CB006D0B2D4258
:1028300087D2A2244AA2056E092D424762D26C01BA
:102840006F092D42CF92D99205700C3D3A4762D262
:102850002645094300710A3D3A8F699314252C726D
:10286000092D424762128B0073092D42CF921E142C
:1028700000740C3D424F980D51588A140075092D73
:102880004247E6A42801760B2D4247A625A5248BB6
:1028900000770A2D42476649942E00780A2D424758
:1028A00096D42AB500790C3D3A47665294504B169F
:1028B000007A092D42C7A0B50D027B0ABC429712CF
:1028C0002662140A7C063943C7217D0BBC42871857
:1028D000854A9848007E091D524FA4245202A00543
:1028E000006207A1073943473208A20E3D3E573622
:1028F00028511225D9104500A30C3D429754C9B662
:1029000030521400A40B2D4247964C49B46401A5E3
:102910000D453E47A625B56890C21200A60639436C
:10292000C732A70B453ECF124E9DC66401A8068B49
:102930005E4712A90D3D42CF9229C9A4245AB20084
:10294000AA0AB446CF10294A7108AB0C2E4257256B
:102950004AA22CCAA200AC07944AC79005AD068CC7
:102960004EC710AE0C3D42CF920DC93469C902AFBB
:10297000060D5EC720B0079B524F1700B10B3542C2
:1029800057180D52180D02B209AC4E8F12350D01B9
:10299000B309AC4EC798884302B406125B8F02B5E8
:1029A0000A353E47669B142504B60F3D42CF3024BE
:1029B0004392285112255112B706094F4700B80615
:1029C000123B8F02B908AB4E4F225506BA0AB446E5
:1029D0008F1249893A04BB0D2E42479445599444BD
:1029E000491401BC0D4E3E4FA816A7504BA2210D15
:1029F000BD0C4E3E4FA816973049C370BE0E4D3EDB
:102A0000879AA591944949328401BF0A3D42570EE5
:102A10008559CB02C00C45424F9A2D99360C991618
:102A2000C10C45425F6DC9B461C8B400C20D4542D6
:102A30005796444BA60D43A605C30D45424FA448E7
:102A40004BA60D43A605C40C45424F1D58326D18C8
:102A5000322DC50D45425796444BA60D43A605C6DB
:102A60000C3E42D790949A86216A1AC70B4D3ACFF2
:102A700092896DC95603C80C45424F368CE190844B
:102A8000E120C90C45425F328CE19084E120CA0C00
:102A9000454257348CE19084E120CB0C45424F6590
:102AA00018C32109C341CC0AC34247962C51CB001D
:102AB000CD0AC34257922C51CB00CE0AC3424F6578
:102AC00048A29601CF0AC34247922D51CB00D00EA7
:102AD0003D42C71055A2212925D1A000D10C454265
:102AE00057D26D521269D302D20B45424F9A2D999B
:102AF0005BB200D30A45425F6DC9DC9205D40C4538
:102B0000425796444BE6962C00D50B454257D2B41B
:102B1000646EC902D60B45424F1D5832B76401D7C7
:102B20000A2D424796D42AB500D80C3D42CF125DFB
:102B300092694A1600D90A45424F1A65DE9205DAB3
:102B40000A45425F29F3962C00DB0B45425796C499
:102B5000995BB200DC0A45424F39F3962C00DD0B3D
:102B600045425F29D3925A5802DE0C3D4247382431
:102B7000D9A0844500DF0D3D42CF924949A9922951
:102B80000A00E00C45424F9A236B3268C910E10CF1
:102B900045425F1D5993414B8600E20D45425796D1
:102BA000E4C09A0C5A3204E30D454257D20EACC928
:102BB000A0254300E40C3D424F1D5893414B860035
:102BC000E50D4542579664D99A0C5A3204E60C2E0C
:102BD00042CF1026C930658300E70B3D3ACF92897A
:102BE00059B2D500E80C45424F9A234B360CE90206
:102BF000E90C45425F1D59B261481700EA0D454294
:102C00005796E4C0920D43BA00EB0C3D424F1D585D
:102C1000B261481700EC09C34247164A2D03ED087C
:102C2000C3424F556A19EE08C3424F9BD432EF0995
:102C3000BB424792492D03F00B3D42872A2D992D27
:102C40005900F10B454257D29C98345B00F20C4579
:102C5000424F9A234B664B1600F30B45425F1D59BA
:102C6000325BB200F40C45425796E4C092D992050B
:102C7000F50C454257D20E2C992D5900F60B3D42CA
:102C80004F1D58325BB200F70A2D46570E0C3A1012
:102C900001F80B2D42CF202DC9342800F90B4542F5
:102CA0004F9A039993A204FA0A45425F1DC89C14E7
:102CB00025FB0B45425796C49993A204FC0A3D425A
:102CC0004F3973529400FD0D4D3A5F2933294AA8BC
:102CD000250B00FE0C453A473824996D50C210FF71
:102CE0000D4D3A4F3933294AA8250B000000000446
:102CF000FFFF0000BF0003020304030505080D00E9
:102D0000FE09FE0900017202F3093E2005006E0C67
:102D10002107C9438C431222071C5B8CC814230E65
:102D2000BE469CA86558A26458A21600240FCD4246
:102D3000AC6C50A224DB922819B4082510CE429C1A
:102D40004C8992284CC35225D11200260DBE421C3C
:102D50002D6AD3A2448B96002706995B8C01280B21
:102D6000CB43AC244AA25A9405290C4B438C2CCA61
:102D7000A24A9444002A0CAE529C289386498B1296
:102D8000002B0AAD4AAC301AA430022C089C3E9CA1
:102D900045C9002D068D528C412E081B3F9C64496D
:102DA000002F094F42EC6A9F6300300DCE422C2D5C
:102DB0004A428F49944900310BCD42AC4C4AC29EE5
:102DC0000601320ECE429C2109C534CCB4301D061A
:102DD000330DCE428C6B589C53311912003410CEF7
:102DE00042CC504BA24A9664C930A60900350ECE9B
:102DF000428C435A59B43415932101360ECE42AC5D
:102E0000294C2B8B268AC99000370CCE428C6B58EC
:102E10000DD3300D01380FCE429C21098DC990840D
:102E2000C6644800390DCE429C21096DCA9216A392
:102E3000093A0B433F9C64C9916449003B0BC43E73
:102E4000AC68CAB145C9003C084D43CCAC6B073DEA
:102E500008A64A8C3B3A0C3E09CD428CB45B470035
:102E60003F0DCE429C2109C534ACE660044010CE33
:102E7000429C21094D431229C994C84302410DCEF9
:102E8000422C2D4A42E33088C6004212CE428C21A9
:102E9000CA92504B86284B422D192200430CCE4239
:102EA0009C2109D51E932101440DCE428C21CA924A
:102EB000D0B7648800450CCE428C435A1DA2B43A68
:102EC0000C460BCE428C435A1DA2B415470DCE4280
:102ED0009C2109D5A621D49425480BCE428CD071D3
:102EE0001844C700490ACD428C410AFB34084A0BFA
:102EF000CF42AC418C7BCAB20D4B10CE428C504BB2
:102F0000A24A262659544BC2004C09CE428CB45FCB
:102F100087014D0E4F428C54DD968A1449916A0DFB
:102F20004E0DCE428C50DC94484AB4D1184F0CCE92
:102F3000429C2109FD980C0900500CCE428C41099D
:102F40008DC392B602510ED63E9C21097D89A424E0
:102F500019E200520ECE428C41098DC3528B6A4950
:102F600018530FCE429C2109D5788853311912008D
:102F7000540A4F428C4316F71B00550ACE428CD0A0
:102F80001F93210156114F428C544DB2288BB24AE7
:102F90009884499A01570E4F428CD453244552A429
:102FA000744B00580E4F428C544DB24A5AC92AA94C
:102FB0001A590C4F428C544DB24A1A77035A0ACE12
:102FC000428C6BD86B3A0C5B094C438C41EBDB10A9
:102FD0005C104F428C380772200772200772200E57
:102FE0005D09CC428C21EBDB205E089D5AAC2CA9FC
:102FF000055F070F3E8C4300600692638C28610CCE
:10300000B6429C214E8651539600620DCE428CB43E
:1030100065D14471531600630CB6429C2109D562F8
:10302000322400640BCE42DC96451B6DCA12650D3E
:10303000B6429C210987410D932101660DCE42AC19
:10304000294BD27090D24600670FC63A9C454BB2CE
:10305000688A87244C8604680BCE428CB465D144C0
:10306000C700690AC542AC1C113B0D026A0CD53A77
:10307000CC1C111B352D59006B0ECE428CB42D8902
:10308000A22DAA2561006C09CD421CB19F06016DDD
:103090000E37428C4589222992222952036E0AB6A4
:1030A000428C64D144C7006F0BB6429C21091D932A
:1030B0002101700DC63A8C64D1C44D59D22A0071D9
:1030C0000BC63A9C451B3565491B720AB6428C6497
:1030D000CA92B411730DB6429C2109135909932168
:1030E00001740CC6429C341CA4B42D5A00750EB653
:1030F000428C2CC9922CC9922C5A02760BB5428C68
:10310000CC9694922C02770C37428CD4144991D2ED
:103110002D01780CB6428C308932518B9230790D6A
:10312000C63A8CD04D5952311912007A08B6428CE9
:1031300063C7617B0C4D43AC254C23350BD3017C1D
:1031400006C9438C077D0CCD428C35CC52290D939A
:10315000097E099D5A9C4849A404A005006E0CA153
:1031600008C9438C641802A20EC546AC6CA928514C
:103170001225952D02A30D4F42BCAD94AE71555B47
:103180001600A40CB6468C3019A24E431206A510A8
:103190004F428C544DB24A3688E120C61900A60829
:1031A000C9438C211902A70E54431C251295484A85
:1031B00044295100A80714638C480AA9114F46AC52
:1031C000AD12454A45C9948A54C9B209AA0CBD4AF0
:1031D0009C3519B464480701AB0C3F46BCA81FA33B
:1031E000300AA300AC07A6468C6B03AD060C538CCB
:1031F00021AE104F46ACAD12454A45A998946ED900
:1032000004AF068E628C03B00924571C2592120568
:10321000B10CBD46AC301AA430070601B20BB45253
:103220001C25CA12251B02B30AB4521C252A4A893E
:1032300002B40692631C05B50ABE3E8CD0715AAC2E
:1032400000B613CE429C615092255922254BB224E0
:103250004BB22401B7068A530C01B806923B9C017D
:10326000B908B3529C446A19BA0AB44E1C2592128A
:103270007508BB0C3F468C288CC2288CFA0DBC0FFD
:1032800057429C546E1C2231C9A24C4905BD0E57B1
:10329000429C546E5286280EC57808BE1257421CB6
:1032A000314A73208B2A92986451A6A402BF0DCE96
:1032B00042AC1C4CC36A28264302C00FD642AC382D
:1032C000C7B42809C56110C500C10FD642BC30077C
:1032D000B52809C56110C500C20FD6422C2DCA21E0
:1032E0002D4A4271184431C30FD6421CC90E695190
:1032F000128AC3208A01C40FD6429CA81DD2A224E0
:103300001487411403C50FD6422C2DCA442D4A42BE
:1033100071184431C6134F421C6588B2288BB268BD
:1033200019B2288BB26808C70DDE3A9C2109D51E58
:103330009321AC01C80FD642AC384786214D87286F
:103340004D8701C90FD642BC308786214D87284D55
:103350008701CA0FD6422C2DCA81439A0E519A0E6C
:1033600003CB0ED6429CA81D38A4E910A5E930CCA9
:103370000CD5429C34070629EC3408CD0BD542BC51
:103380003A304861A741CE0BD5422CA93A4861A7F3
:1033900041CF0CD5428C4C4B0729EC3408D0134F4D
:1033A000429C212B8549386449988449160D1100A7
:1033B000D11157421C298974281D954C8AB4445C4C
:1033C00003D20E5742AC1CC8C14149BD268302D36B
:1033D0000E5742CC34070725F59A0C0A00D40E5735
:1033E000423C31CAA14149BD268302D50F57421C38
:1033F0002989746C5052AFC9A000D60F57429C2C3B
:10340000CA72685052AFC9A000D70CB6468C30893A
:1034100032518B9230D814DE3EDC6448B2299112CE
:1034200025522225DA92214901D90CD6429C3887AF
:10343000421F932101DA0CD642BC3087421F9321F0
:1034400001DB0DD6422C2DCA81D0C7644800DC0CAC
:10345000D6429CA81D087D4C8604DD0CD542BC3AA2
:103460009069492D6C02DE0DCE428C745042E3B05F
:10347000A45500DF10CE429C294BB224AA649112BD
:103480005A1600E00ECE42AC3887863819464D59A0
:1034900002E10DCE42CC3A34C4C9306ACA12E20FFE
:1034A000CE422C2DCA91214E8651539600E30ECE6A
:1034B000421CC98E0C71328C9AB204E40ECE429C2E
:1034C000A81D19E26418356509E50FD6422C2DCAEE
:1034D0007468889361D49425E60E37421C63940C7B
:1034E0004A9445150B00E70DC63A9C2109D5623276
:1034F000843500E80FCE42AC388786241C06354C54
:103500008604E90FCE42BC30C786241C06354C86A3
:1035100004EA10CE422C2DCA91210987410D932136
:1035200001EB10CE429CA81D19927018D4301912CC
:1035300000EC0BCD429C3447C44E8300ED0BCD42D2
:10354000AC2C87C44E8300EE0BCD421CA90E889D87
:103550000601EF0CCD428C28897240EC3408F01043
:10356000D6429C28D392381A92D031191200F10C0D
:10357000CE421CC90E248B263A06F20DCE429C3850
:10358000C78624744C8604F30DCE42BC30C7862413
:10359000744C8604F40ECE422C2DCA9121091D9341
:1035A0002101F50ECE421CC98E0C49E8980C090089
:1035B000F60ECE429CA81D1992D031191200F70CBC
:1035C000BD46AC3007061D082300F80FC63EDC647C
:1035D00048B22951A22D199214F910CE429C388775
:1035E000B2244BB2244BB26809FA10CE42BC3087E9
:1035F000B2244BB2244BB26809FB11CE422C2DCA27
:10360000812CC9922CC9922C5A02FC11CE429C5A90
:10361000922359922559922559B404FD0FDE3ABCE4
:10362000308742376549C5644800FE0ED63A8CB4EF
:10363000B268A2B8294B9A02FF0FDE3A9CA81D0877
:10364000DD94251593210100000004FFFF00000018
:10365000871F00088B1F0008AB1A00081815AF1948
:10366000FF1815AE19FF1815A115C819FF1815A0D8
:1036700015C019FF1815A115C019FF1815A015C8F8
:1036800019FF1815AE15D5168015A8163F15D316B7
:10369000001540158D16141520160015A115C81516
:1036A000DA1612158116CF15D916F115DB1640154D
:1036B0002E15A415A619FF1815AE15D5168015A838
:1036C000163F15D316001540158D1614152016003B
:1036D00015A115C815DA1612158116EF15D916A100
:1036E00015DB1600152E15A415A619FF1815AE1515
:1036F000D5168015A8163F15D316001540158D1642
:10370000141520160015A115C815DA160215811614
:10371000CF15D916F115DB1640152E15A415A619CF
:10372000FF1815AE15A415D5165015A8163F15D3BC
:103730001600154015AD168B15D9162215DB16355A
:103740001532158116FF15A615DA161219FF181570
:10375000AE15D5168015A8163F15D31600154015C1
:103760008D16141520160015A115C015DA161215A0
:103770008116CF15D916F115DB1640152E15A41597
:10378000A619FF000001140A6464323200127A00A4
:103790000004289610080000800040000001140A70
:1037A0006464323200093D000304289610080202C6
:1037B00080004000D43700080000002018000000FE
:1037C00028010008EC37000818000020800B0000DA
:1037D000440100080100000010000000000000008B
:0C37E0000024F4000000000000000000C5
:04000005080000ED02
:00000001FF
