:020000040800F2
:10000000C006002089010008630C0008B70B000837
:10001000610C0008E3020008FD0E0008000000006B
:10002000000000000000000000000000670C000855
:10003000E502000800000000650C0008690C0008DB
:10004000A3010008A3010008A3010008A301000800
:10005000A3010008A3010008A3010008A3010008F0
:10006000A3010008A3010008A3010008A3010008E0
:10007000A3010008A3010008A3010008A3010008D0
:10008000A3010008A3010008A3010008A3010008C0
:10009000A3010008A3010008A3010008A3010008B0
:1000A000A3010008A3010008A3010008A3010008A0
:1000B000A3010008A3010008A3010008A301000890
:1000C000A3010008A3010008A3010008A301000880
:1000D000A3010008F10E0008A3010008A301000815
:1000E000A3010008A3010008A301000800F002F822
:1000F00000F03AF80AA090E8000C82448344AAF188
:100100000107DA4501D100F02FF8AFF2090EBAE885
:100110000F0013F0010F18BFFB1A43F0010318473B
:10012000C00E0000E00E0000103A24BF78C878C16D
:10013000FAD8520724BF30C830C144BF04680C60ED
:10014000704700000023002400250026103A28BF35
:1001500078C1FBD8520728BF30C148BF0B60704739
:100160001FB51FBD10B510BD00F082F81146FFF796
:10017000F7FF00F0D5FE00F0A0F803B4FFF7F2FFA0
:1001800003BC00F0A7F80000094880470948004771
:10019000FEE7FEE7FEE7FEE7FEE7FEE7FEE7FEE737
:1001A000FEE7FEE704480549054A064B7047000094
:1001B0006D0C0008ED000008C0000020C006002003
:1001C000C0020020C002002010B5431C02E010F85D
:1001D000011B71B18107FAD14FF0013202C88C1AAC
:1001E0008C4314EAC211F9D0C01A0A0603D0C01E0B
:1001F00010BDC01A10BD0A0401D0801E10BD090236
:10020000FCD0401E10BD10B5203AC0F00B80B1E804
:100210001850203AA0E81850B1E81850A0E818503B
:10022000BFF4F5AF5FEA027C24BFB1E81850A0E844
:10023000185044BF18C918C0BDE810405FEA827C5E
:1002400024BF51F8043B40F8043B08BF7047D20775
:1002500028BF31F8023B48BF11F8012B28BF20F816
:10026000023B48BF00F8012B70477047704770474A
:10027000754600F02BF8AE4605006946534620F05F
:100280000700854618B020B5FFF78CFFBDE8204079
:100290004FF000064FF000074FF000084FF0000B42
:1002A00021F00701AC46ACE8C009ACE8C009ACE8F5
:1002B000C009ACE8C0098D46704710B50446AFF3DD
:1002C00000802046BDE81040FFF757BF0048704748
:1002D0005C00002001491820ABBEFEE726000200AA
:1002E0007047FEE7704772B6FEE710B590F8211030
:1002F0000022022905D00421816380F820200120FA
:1003000010BD01680B6823F00E030B6001680B68D9
:1003100023F001030B6090F84030C46B012101FA17
:1003200003F3636080F8211080F82020104610BD90
:1003300010B590F821100024022903D00421816314
:1003400001243DE001680A6822F00E020A6001689B
:100350000A6822F001020A601A4A0168914201D13A
:10036000012121E0174A1432914201D110211BE0F2
:10037000144A2832914201D1891515E0114A3C32C4
:10038000914201D189140FE00E4A5032914202D1BC
:100390004FF4803108E00B4A6432914202D14FF4AD
:1003A000801101E04FF08071064A083A5160012146
:1003B00080F82110002180F82010416B01B188479E
:1003C000204610BD0800024070B5044600F00CF94C
:1003D0000546601C02D004480078044400F004F98B
:1003E000401BA042FAD370BD040000202DE9F84F55
:1003F000DFF8B8910024A9F1040B23460F2709F177
:10040000040AABF1040EC9E00125A5402A40AA4226
:100410007DD1674ED1F804C0ACEB0608B44532D0AC
:1004200014DCBCF1030F3AD009DCBCF1000F2AD078
:10043000BCF1010F1CD0BCF1020F31D11DE0BCF1A9
:10044000110F17D0BCF1120F2AD119E0B8F5881F8F
:1004500019D006DCB8F5803F15D0B8F5801F1FD144
:1004600011E0B8F5001F0ED0B8F5041F18D10AE04E
:10047000CB6815E0CB681B1D12E0CB6808330FE09A
:10048000CB680C330CE08B682BB1012B4FF00803C9
:1004900003D0456104E0042302E0056100E000238D
:1004A000FF2A01D8064601E000F104064FEA840560
:1004B00001D9A5F12005D6F8008007FA05FC28EA45
:1004C0000C0803FA05F548EA0508C6F800804D68EF
:1004D000ED0062D5374DAE6946F00106AE61AD69FB
:1004E00024F0030605F001050095334D06EB050CDD
:1004F000DCF80850A607360F07FA06F825EA0805C3
:10050000DFF8B880404503D14FF0000817E044E021
:10051000DFF8AC80404502D14FF001080FE0DFF872
:10052000A480404502D14FF0020808E0DFF898802F
:10053000404502D14FF0030801E04FF0040808FAEB
:1005400006F848EA0508CCF808804D68D9F800603C
:10055000ED024D4601D5164300E096432E604D68EE
:10056000DAF80060AD02554601D5164300E0964327
:100570002E604D68DBF80060AD035D4601D5164383
:1005800000E096432E604D68DEF80060ED0375468E
:1005900001D5164300E096432E60641C0D682A4680
:1005A000E5407FF431AFBDE8F88F0000080401405A
:1005B000000011100010024000000140000801403E
:1005C000000C01400010014000140140C26821EA03
:1005D00002030A4043EA0241016170470AB1016126
:1005E00070470904FBE7000001488068704700007D
:1005F000040000200248816802781144816070473D
:1006000004000020074810B5016841F010010160A6
:10061000032000F075F80F2000F006F800F024F831
:10062000002010BD0020024070B50D4D04464FF46F
:100630007A712878B1FBF0F00A490968B1FBF0F053
:1006400000F090F848B9102C07D200222146501E25
:1006500000F036F800206C6070BD012070BD000015
:1006600004000020100000200C4808B5816941F00A
:1006700001018161816901F001010091C16941F0CD
:100680008051C161C06900F0805000900448416809
:1006900021F0E06141F00071416008BD00100240AE
:1006A00000000140002809DB00F01F0201219140F9
:1006B0004009800000F1E020C0F800117047000000
:1006C000F0B40E4B1B680C46C3F30223C3F10705BD
:1006D000042D00D90425191D072901D2002300E0AB
:1006E000DB1E012606FA05F1491E214099409E4075
:1006F000761E16403143F0BC00F001BC0CED00E06A
:10070000064900F0070208684FF6FF03184040EA68
:100710000220034A10430860704700000CED00E01F
:100720000000FA050448054900684968044AC1F315
:100730000221515CC84070471000002000100240A8
:10074000D80F00080448054900684968044AC1F305
:10075000C221515CC84070471000002000100240C8
:10076000D80F000810B5401EB0F1807F01D30120E2
:1007700010BD4FF0E02460610F21601700F0BFFB57
:100780000020A06107202061002010BD7047704745
:10079000F8B5016804460868CA684B6910F00F0F85
:1007A0004FF0000559D003F0010602F4907737436B
:1007B00065D0C10705D0D10503D5616C41F00101B9
:1007C0006164410705D5D90703D0616C41F002018E
:1007D0006164810705D5D90703D0616C41F004013C
:1007E0006164010707D502F02001314303D0616C39
:1007F00041F008016164616C00293AD0800604D59B
:10080000900602D5204600F061FA20684069616CCC
:10081000C0F38010090700D460B3204600F02FFA1F
:1008200020684069400621D52068143050E8001F38
:1008300021F0400140E80012002AF5D1E06BA8B198
:100840006D494163E06BFFF773FD002811D0E06B49
:10085000416B01B0BDE8F040084783060FD5930611
:100860000DD52046BDE8F84000F030BA2046FFF72D
:100870008EFFF8BD2046FFF78AFF6564F8BD266B42
:100880002023012E7CD1C6067AD5D60678D50868F5
:100890004868009048694FF00206400640D5E16B79
:1008A000086840680004000CE8D0A28D8242E5D9B7
:1008B000E085886920282DD020680C3050E8001F82
:1008C00021F4807140E80012002AF5D1206814302C
:1008D00050E8001F21F0010140E80012002AF5D184
:1008E0002068143050E8001F21F0400140E8001259
:1008F000002AF5D184F84230256320680C3050E896
:10090000001F21F0100140E80012002AF5D1E06B31
:10091000FFF7EBFC6663A08DE18D401A81B22AE0FF
:10092000A08DE18D401A81B2E08D0028A6D000296B
:10093000A4D022680C3252E8000F20F4907042E8F4
:100940000007002FF5D12068143050E8002F22F066
:10095000010240E80027002FF5D184F842302563DA
:1009600020680C3050E8002F22F0100240E80023ED
:10097000002BF5D166632046FFF708FFF8BDFFE7BF
:1009800005062BD5150629D594F841002128F5D167
:10099000A068B0F5805F01D12069B0B1206A411C28
:1009A0002162216800784860E08C401E0004000C41
:1009B000E084E3D12068C16821F08001C160206833
:1009C000C16841F04001C160D8E7206A0088C0F3E7
:1009D00008004860206A801C2062E5E74006CDD50B
:1009E0005006CBD5CA68204622F04002CA6084F87F
:1009F000413000F0DFF8C1E76F0C000870B504006B
:100A000004D094F84100002510B106E0012070BD2B
:100A100084F84050204600F023F8242084F8410058
:100A20002068C16821F40051C160204600F0B0F98F
:100A30002068016921F4904101612068416921F039
:100A40002A0141612068C16841F40051C1606564B8
:100A5000202084F8410084F842006563002070BDC6
:100A600030B585B00024009401940294039400688A
:100A7000184988422CD11848816941F4804181612C
:100A8000816901F480410491816941F0040181612F
:100A90008069124D00F0040004904FF40070009043
:100AA000022001900320039069462846FFF79EFC30
:100AB0002815CDE90004694628460294FFF796FC04
:100AC000002211462520FFF7FBFD2520FFF7EAFD58
:100AD00005B030BD00380140001002400008014060
:100AE00090F84230202B01D00220704721B11AB17A
:100AF0000023036300F0A8B9012070470068034990
:100B0000884202D1024901204870704700380140F4
:100B1000000000202DE9F843044690F84100984673
:100B200016460D46202802D00220BDE8F88385B184
:100B30007EB100206064212084F84100FFF754FD5D
:100B4000A6848146E684A0682027B0F5805F02D0A5
:100B500003E00120E9E7206910B12E4600250EE0F0
:100B600000260CE08021204600F089F9A8B9C6B122
:100B700016F8010B21684860E08C401EE084E08C90
:100B80004B464FF00002CDF800800028EAD14FF02C
:100B90004001204600F073F940B184F84170032011
:100BA000C3E735F8020BC0F30800E3E784F84170AF
:100BB0000020BAE77047FEE730B585B0002418483A
:100BC0000094019402940394816941F010018161C1
:100BD000816901F010010491816941F02001816176
:100BE000816901F020010491816941F00401816172
:100BF00080690C4D00F0040004900022102128466A
:100C0000FFF7ECFC102000900120CDE90104022048
:100C1000039069462846FFF7E9FB05B030BD0000A8
:100C200000100240000801400C4810B50A4901605C
:100C30004FF4E1314160002181600C22C160C0E9C4
:100C400004128161C161FFF7D9FE002803D0BDE81D
:100C50001040FFF748BB10BD0038014014000020D1
:100C6000FEE7FEE770477047FFF7C4BC704710B55A
:100C7000406A0021C185C184FFF789FD10BD01686C
:100C80000C3151E8002F22F4907241E80023002B30
:100C9000F5D10168143151E8002F22F0010241E83A
:100CA0000023002BF5D1016B012909D101680C311A
:100CB00051E8002F22F0100241E80023002BF5D16B
:100CC000202180F8421000210163704708B590F898
:100CD0004210222901D0022008BD82684FF48053BF
:100CE0009A4201D1016921B1816A9A421BD04AB16D
:100CF0000AE00268816A5268C2F308020A80816AC7
:100D0000891C08E0026972B10268526802F07F0231
:100D10000A70816A491C8162C18D491E0904090C4F
:100D2000C18503D01BE002685268F1E70168CA6818
:100D300022F02002CA600168CA6822F48072CA6088
:100D400001684A6922F001024A61202180F84210BC
:100D500000214163026B012A03D0FFF7CFFE002080
:100D600008BD016301680C3151E8002F22F0100228
:100D700041E80023002BF5D101680A68D20602D5AC
:100D80000A6849680091818DFFF700FDE7E70000E0
:100D900070B5044600680169E26821F440511143CE
:100DA00001612169A0680843616908432168CA6834
:100DB00041F20C639A430243CA6020684169A26908
:100DC00021F44071114341611E492068884202D1DB
:100DD000FFF7B8FC01E0FFF7A5FC00EBC00101EB59
:100DE0000012606864218000B2FBF0F3B3FBF1F302
:100DF0006FF018067343B2FBF0F5B2FBF0F605EBAB
:100E00008305322303EB0515B5FBF1F5B6FBF1F6CF
:100E100005F0F00505EB0615B2FBF0F6B2FBF0F0BD
:100E2000B0FBF1F06FF01802504306EB800003EBCB
:100E30000010B0FBF1F0216800F00F00284488603A
:100E400070BD00000038014081628285C2850021AA
:100E50004164222180F84210016921B10168CA6809
:100E600042F48072CA6001684A6942F001024A6134
:100E70000068C16841F02001C160002070472DE981
:100E8000F843984617460D460446089E24E0701C19
:100E900022D0FFF7A9FBA0EB0800B0421AD8CEB1D0
:100EA0002068C168490717D5802D15D0402D13D073
:100EB0000168C94309070FD4016800254068009004
:100EC0002046FFF7DCFE0820606484F840500120D3
:100ED000BDE8F8830320FBE72068006835EA0000DE
:100EE00004D00020B842D2D00020F1E70120F9E779
:100EF0000148FFF74DBC000014000020FEE7090781
:100F0000090E002804DB00F1E02080F8001470478F
:100F100000F00F0000F1E02080F8141D7047000081
:100F200086B0FFF76FFBFFF747FEFFF77DFE01225C
:100F300021492248FFF7D4FD1F4C0025204EA41E56
:100F4000607878B16570A078232802D02A2802D072
:100F500003E0257001E001202070012216491748A6
:100F6000FFF7BEFD2078F0B1142216A16846FFF706
:100F70004AF96846FFF728F982B24FF6FF736946CF
:100F80000E48FFF7C7FD012210213046FFF726FB70
:100F90006420FFF719FA002210213046FFF71EFBEC
:100FA0004FF47A7005E010213046FFF70FFB4FF445
:100FB000FA70FFF709FAC3E70200002014000020CE
:100FC0000008014068656C6C6F2077696E646F770C
:100FD00073210D0A0000000000000000010203045C
:100FE0000010000800000020140000002801000884
:100FF0001410000814000020AC0600004401000892
:1010000001000000010000001000000000000000CE
:0410100000127A0050
:04000005080000ED02
:00000001FF
