:020000040800F2
:1000000058070020AD0100081B390008FD2F00082B
:10001000193900084D150008CD3C0008000000000B
:100020000000000000000000000000001F39000870
:100030004F150008000000001D3900082139000894
:10004000C7010008C7010008C7010008C701000870
:10005000C7010008C7010008C7010008C701000860
:10006000C7010008C7010008C7010008C701000850
:10007000C7010008C7010008C7010008C701000840
:10008000C7010008C7010008C7010008C701000830
:10009000C7010008C7010008C7010008C701000820
:1000A000C7010008C7010008C7010008C701000810
:1000B00085390008C7010008C7010008C70100080A
:1000C000C7010008C7010008C7010008C7010008F0
:1000D000C7010008C7010008C13C0008C7010008AB
:1000E000C7010008C7010008C701000800F002F8B6
:1000F00000F04DF80AA090E8000C82448344AAF175
:100100000107DA4501D100F042F8AFF2090EBAE872
:100110000F0013F0010F18BFFB1A43F0010318473B
:1001200084440000A4440000103A24BF78C878C179
:10013000FAD8520724BF30C830C144BF04680C60ED
:10014000704700000023002400250026103A28BF35
:1001500078C1FBD8520728BF30C148BF0B60704739
:10016000662904F04E81642900F07E80732900F036
:100170003084002070471FB500F030FC04000020E0
:10018000002103F039FFE0601FBD10B510BD00F085
:1001900025FD1146FFF7EFFF03F000FE00F043FDE1
:1001A00003B4FFF7F2FF03BC00F086FD0948804767
:1001B00009480047FEE7FEE7FEE7FEE7FEE7FEE749
:1001C000FEE7FEE7FEE7FEE704480549054A064B61
:1001D0007047000083390008ED0000085801002036
:1001E0005807002058030020580300200FB41CB506
:1001F000074B06AA7B4469460090059800F0BFFBB8
:100200000020694600F0CEFB1CBC5DF814FB00002A
:10021000AD07000070B50C460546012A05D02878C8
:10022000800600D5EA69002302E0012305E05B1C9B
:10023000934202D2E05C0028F9D1A869E618C01AFE
:10024000A861286A184428622846AFF3008004E0B9
:10025000D5E9012114F8010B9047B442F8D32846A0
:10026000AFF3008070BD00002DE9F0410646002488
:1002700010687529314616A510D0AFF3008000280C
:1002800002DA404213A507E031688A0701D512A5BA
:1002900002E0490704D511A5012401E0AFF3008075
:1002A00000210A2206F1240709E0B0FBF2FCB0FBB2
:1002B000F2F302FB1C00303078541846491C002829
:1002C000F3D123462A463046BDE8F04100F0EAB8B3
:1002D000000000002D0000002B00000020000000A6
:1002E0002DE9F0474FF0000A89460446C0F820A0E7
:1002F0002046E1688847002876D0252806D0D4E932
:1003000001219047206A401C2062F1E7E168204605
:1003100000258847C4F81CA006460027C4F818A08A
:100320002A2E09D0304603F0F6FC38B304EB8708D8
:10033000303EC8F8186019E059F8041B204604EB59
:1003400087029161E1688847012F064618D1E0696C
:10035000002820DA25F020051DE0D8F8180000EB71
:10036000800006EB40003038C8F818002046E168ED
:100370008847064603F0CFFC0028EED1012F0AD0B3
:100380002E2E08D12046E16888477F1C0646022FA2
:1003900045F02005C4DBA069002803DA404245F09F
:1003A0000105A061E80701D025F01005B6B1A6F15E
:1003B0004100192802D8203645F400654A463146E6
:1003C000204625604D46FFF7CBFE58B1012806D0E8
:1003D000ED1D25F0070000F1080989E704E005F1AB
:1003E000040985E730468AE7206ABDE8F08730B522
:1003F00005460B462A4613F8014B12F8010B08B1CB
:10040000A042F8D01CB1002802D06D1CF1E72846AC
:1004100030BD10B5431C02E010F8011B71B181071B
:10042000FAD14FF0013202C88C1A8C4314EAC2117F
:10043000F9D0C01A0A0603D0C01E10BDC01A10BDE4
:100440000A0401D0801E10BD0902FCD0401E10BD60
:100450004FF0000200B5134694469646203922BF5D
:10046000A0E80C50A0E80C50B1F12001BFF4F7AFA8
:10047000090728BFA0E80C5048BF0CC05DF804EB8A
:10048000890028BF40F8042B08BF704748BF20F8F8
:10049000022B11F0804F18BF00F8012B70477047F6
:1004A000704770472DE9F0470D469946924604463D
:1004B00000F124080168880604D5E06921F01001E4
:1004C000216000E00120A84201DD471B00E0002779
:1004D000A1697A1902EB0900081AA0612078C00608
:1004E00002D42046AFF30080002608E0D4E90121C1
:1004F0001AF806009047206A401C761C20624E4580
:10050000F4DB2078C0060AD52046AFF3008006E071
:10051000D4E9012130209047206A401C2062381E17
:10052000A7F10107F4DC07E0D4E9012118F8050080
:100530009047206A401C2062281EA5F10105F3DCCB
:100540002046AFF300802078000602D50220BDE8E7
:10055000F0870120FBE770472DE9FF4F0C461E4650
:100560004FF0FF378BB0D2E90001DDF860800A90D0
:100570008A46C1F30A5505B93D46002108464FF0A9
:100580000000BAF1000F00F4400005DA00EB800033
:100590004FF4400101EA50004FEA9059B9F1010FC0
:1005A00000DDB9460A9850EA4A000ED044F61050D1
:1005B000A5F2FF3545432F14B8F1000F1ED0754248
:1005C000291E1EDDC9F100021CE0B8F1010F4FF039
:1005D000000001D0302103E0F24305E02154401C2B
:1005E000B042FBDB30460022002121540B99C1F8B8
:1005F0000880C1E900200FB0BDE8F08FBD1B6D1C65
:10060000DEE74A4600DA694206A800F071FA06AB56
:1006100093E8070003AB83E8070050460A9900F00F
:1006200052FB8DE80700A0F500501F38009003989A
:10063000002D0ADD42F21F014A460844002303A9A7
:100640000390684600F0BBFD09E0A0F500504A4663
:100650001F38002303A90390684600F0C5FD8DE80C
:1006600007000004000C03D04FF0FF30410800E009
:100670001046B8F1000F03D00022009215461EE08C
:10068000751E05D400F0AEF9303262556D1EF9D5F5
:10069000B3460122084302D000227F1C04E02078E8
:1006A000302801D100227F1E002A099784D01DE046
:1006B000112D07DA00F096F9303262556D1C50EAC0
:1006C0000102F5D1084302D00098C8B10EE0002124
:1006D000681E05E0235C625C63542254401E491C82
:1006E0008142F7DBAB46A81B401E0990002004F8AE
:1006F0000B000B98099AC0F80880C0E9002B7AE734
:1007000011264FF0000857E72DE9F04F88460446C0
:10071000D21D22F0070191B0D1E90001CDE90A0113
:1007200003F0D5FA02460B98C00F01D02D2007E048
:100730002068810701D52B2002E0202101EAC000BA
:10074000032A099001D0072A05DB034641462046CB
:1007500000F08EF90BE12078800601D5E06900E019
:100760000620B8F1650F814606D0B8F1660F18D0A3
:10077000B8F1670F70D131E00020B9F1110F00908E
:1007800001DB112301E009F101030AAA01A90CA868
:10079000FFF7E2FEDDE90C70002609F10105834652
:1007A00047E001204B4600904FF000470AAA01A9FC
:1007B0000CA8FFF7D1FEDDE90DB00C995D460026CF
:1007C00010B909F101000D18B9EB050003D4C0F10F
:1007D000FF3609F10105A5EB09002BE0B9F1010F86
:1007E00001DA4FF001090020B9F1110F00904846DD
:1007F00001DD112300E003460AAA01A90CA8FFF7B6
:10080000ABFEDDE90C704D460026834620780007DC
:100810000AD4AB4500DA5D4601A8012D04DD41197B
:1008200011F8011C302907D04F4502DA17F1040FE7
:1008300004DA012082460FE06D1EEEE7002F02DC95
:10084000ED1B3E4403E0781CA84200DD7D1CB81B74
:1008500000F1010A4FF000472078000703D4AA45B1
:1008600001DB4FF0FF3A0021B7F1004F0DF14308D3
:100870008DF8431024D002202B23002F01DA7F4271
:100880002D230A21021EA0F1010000DC5FB197FBBD
:10089000F1FC97FBF1F201FB1C7C17460CF1300CCC
:1008A00008F801CDEEE7A8F10100037021880905E1
:1008B00001D5452100E06521A0F1010800F8011CE7
:1008C00009980FA9A1EB0807FF1D00B101204119EC
:1008D00001EBEA70A1693844081A401EA061207833
:1008E000C00602D42046AFF30080099828B1D4E9AD
:1008F00001219047206A401C20622078C00622D542
:100900002046AFF300801EE0002E04DBB34502DD7D
:1009100001A8805D00E03020D4E901219047206AE1
:10092000401C2062761CAAF101005FEA000A0AD18D
:1009300000F054F8C0680168405CD4E90121904798
:10094000206A401C2062281EA5F10105DCDC07E0BE
:10095000D4E9012118F8010B9047206A401C20625D
:10096000381EA7F10107F3DC2046AFF30080032017
:1009700011B041E601694A1C02610878704700B570
:100980008FB0CDE901310021059105497944CDE9C8
:10099000031011466846FFF7A3FC0FB000BD00002E
:1009A000E5FFFFFF0A6802F8010B0A60704710B507
:1009B000436913B1AFF3008001E0FFF72BFC012086
:1009C00010BD127800F124010A7000224A70012241
:1009D000EDE711684FF0FF32E9E70000004870478B
:1009E0001801002030B5B0F10A024FEA900E71F103
:1009F00000034EEA817EB0EB0E0061EB91014FEAFD
:100A0000101E4EEA017E10EB0E0041EB11114FEA71
:100A1000102E4EEA016E10EB0E0041EB11214FEA51
:100A2000104E4EEA014E10EB0E0041EB1141401802
:100A300041F100014FEAD00040EA41704FEAD10194
:100A400010EB80054FEA810444EA907444EB010402
:100A50006D1944EB0404521BA3414FF0000348BF3F
:100A60000A3200D530BD401C41F1000130BD00000C
:100A70002DE9F0411F46044603260168072A01F4C8
:100A8000006004DB08B116A505E016A503E008B177
:100A900015A500E015A521F010002060A069C01E7A
:100AA000A0610FB1401EA0612046AFF300804FB19E
:100AB000D4E9012138469047206A401C2062C01CBE
:100AC000206206E0206AFAE7D4E9012115F8010B5B
:100AD0009047761EF8D22046AFF30080BDE8F08143
:100AE0004E414E006E616E00494E4600696E6600D2
:100AF0002DE9F047814616468AB0354878440DC83E
:100B00008DE80D0032487844801C03AC0DC884E8A1
:100B10000D0041F69B300844372190FBF1F290FB29
:100B2000F1F5A5F1800501FB12041B3C02D56442DE
:100B3000012000E00020DFF898A080460027FA445A
:100B4000AAF1BE0A0EE0E0070AD03246684607EB7B
:100B5000470101230AEB810100F046FB8DE8070005
:100B600064107F1C002CEED1194F7F44AE3F19E07A
:100B7000E80715D007EB04100DF1180A90E80E00F5
:100B80008AE80E00C068F04201D1981908903246F8
:100B9000012306A903A800F027FB03AB83E80700A5
:100BA0006D10641C002DE3D14FF0010332466946FD
:100BB000B8F1000F03A802D000F001FB01E000F043
:100BC00013FBC9E90001C9F808200AB0BDE8F087A5
:100BD0008C3A000000487047F80000207546FFF787
:100BE000F9FFAE4605006946534620F007008546EA
:100BF00018B020B5FFF7E8FABDE820404FF0000636
:100C00004FF000074FF000084FF0000B21F00701F4
:100C1000AC46ACE8C009ACE8C009ACE8C009ACE837
:100C2000C0098D46704710B50446AFF300802046DA
:100C3000BDE81040FFF7B4BA4FF0013C50F8042B68
:100C400051F8043B9A4221D1A2EB0C03934313EADF
:100C5000CC1317D150F8042B51F8043B9A4215D10C
:100C6000A2EB0C03934313EACC130BD150F8042BE3
:100C700051F8043B9A4209D1A2EB0C03934313EAC7
:100C8000CC13DBD04FF00000704700BFD01A01BA80
:100C9000B1FA81F101F0180122FA01F0CB40C1F163
:100CA0002001DBB2C0B2C01A2CFA01F3D11A914371
:100CB00011EAC311E6D1704701491820ABBEFEE727
:100CC0002600020070475FEA400C08BF91F0000F59
:100CD0004FEA8C234FEAC12243EA51514FEA1C509C
:100CE00018BF00F5F0404FEA300018BF41F0004156
:100CF0005FEA6C5C00F02980BCF1FF3F08BF40F068
:100D000080407047130C06BF12044FF0100C4FF0D8
:100D1000000C130E04BF12020CF1080C130F04BFD9
:100D200012010CF1040C930F04BF92000CF1020CA1
:100D3000D30F04BF52000CF1010C11464FF000021A
:100D4000A0F11F00A0EB0C00704711F0004F08BF8E
:100D5000704731F000413FF4D5AF0B0C06BF0904DA
:100D60004FF0100C4FF0000C0B0E04BF09020CF1F9
:100D7000080C0B0F04BF09010CF1040C8B0F04BF0E
:100D800089000CF1020CCB0F04BF49000CF1010CDF
:100D9000CCF12003A0EB0C0022FA03F302FA0CF2D0
:100DA00041EA030100F10100704720F07F4C80EA26
:100DB000030023F07F47ACEB070303F57C5300F0FF
:100DC000004003F1FF032DE980494FEA154B09B4B8
:100DD0004FEA144325EA0B4E24EA03480FF2042697
:100DE00006EB132749083E785FEA320203FB0667E9
:100DF000C7F5000707FB06F64FEA54374FEAD64619
:100E000006F1020607FB066CCCF1005C4FEA1C47BA
:100E10002CEA074C07FB06F40CFB06F504EB154621
:100E20004FEA961634BF00204FF000404FEAD1370A
:100E300006FB07FC4FEA1C4C0CFB0BF7D21B03FB19
:100E40000CF761EB07010CFB0EF7B0EB074072EB00
:100E500017420CFB08F734BFA2EB0742B2EB074284
:100E600061EB17414FEA0C444FEA910706FB07FC80
:100E70004FEA1C4C0CFB0BF7B0EBC74072EB573240
:100E800003FB0CF734BFA2EBC742B2EBC74261EBE6
:100E900057310CFB0EF7B0EBC70072EB57720CFB2F
:100EA00008F734BFA2EBC702B2EBC70261EB577180
:100EB000039F4FEA816141EA921104EBCC044FEAAF
:100EC000D1374FEA826206FB07FC42EA90124FEAF2
:100ED00080604FEA1C4C0CFB0BF7D21B03FB0CF79A
:100EE00061EB07010CFB0EF7B0EB074072EB17420A
:100EF0000CFB08F734BFA2EB0742B2EB074261EBF1
:100F000017414FEA8C554FEA910704EB9C2406FBEE
:100F100007FC4FEA1C4C0CFB0BF7B0EBC74072EB25
:100F2000573203FB0CF734BFA2EBC742B2EBC74208
:100F300061EB57310CFB0EF7B0EBC70072EB577249
:100F40000CFB08F734BFA2EBC702B2EBC70261EBA0
:100F5000577115EB4C254FEA816141EA92114FEA36
:100F600082624FEAD13742EA901206FB07FC44F155
:100F700000044FEA80604FEA1C4C0CFB0BF7D21BBD
:100F800003FB0CF761EB07010CFB0EF7B0EB07401E
:100F900072EB17420CFB08F734BFA2EB0742B2EB2F
:100FA000074261EB174115EB1C154FEA813141EA0D
:100FB00092414FEA823242EA90424FEA80304FEA51
:100FC0000C7644F1000448EA03434EEA0B484FF024
:100FD000000EB2EB080C71EB030724BF62463946E2
:100FE0004EEB0E0E4FF0000B0018524149414BEBF7
:100FF0000B0BB2EB080C71EB03077BF1000B24BF6A
:10100000624639464EEB0E0E4FF0000B001852416F
:1010100049414BEB0B0BB2EB080C71EB03077BF177
:10102000000B24BF624639464EEB0E0E51EA020712
:1010300018BF46F0010616EB0E7655F1000254F18A
:10104000000103D5BDE88901BDE80088BDE889013C
:10105000BDE80048B619524141EB0101A3F101037B
:10106000704780807F7E7D7C7B7A79787776767515
:101070007473727171706F6E6E6D6C6C6B6A6A698D
:101080006868676666656464636362616160605F27
:101090005F5E5E5D5D5C5C5B5B5A5A5959585857A0
:1010A0005756565555555454535352525251515008
:1010B00050504F4F4F4E4E4D4D4D4C4C4C4B4B4B5B
:1010C0004A4A4A49494948484847474747464646A1
:1010D00045454544444444434343434242424241DC
:1010E0004141002B9C4630D477002BD01CB54FEAF1
:1010F000370703B44FF010004FF01001BAF1000FA2
:1011000006D0BCF1000FDCBF40F0080040F0080141
:101110004FF000000FBCBDE810400BF1010BBBF11C
:10112000010F08BF5FEA170722BF12F1010211F198
:1011300001014FF0004143F1000300F0004043EA99
:1011400000007047F9D35708D0E746EA064613F186
:10115000400F4FEA16461FDD13F1200FDFBF164385
:101160000A46002120335B42BED0C3F1200746EA85
:10117000064602FA07F74FEA164646EA0706C3F1A3
:10118000200722FA03F201FA07F721FA03F14FF0E0
:10119000000342EA0702A7E746EA020646EA0646D5
:1011A0004FEA164646EA0106BCBF46EA0646360C3A
:1011B0004FF000034FF000024FF0000194E72DE9DB
:1011C000804C9A46934670B491E8380007C831EADB
:1011D000400C48BF34EA430C03D5FFF7E6FDFFF7A8
:1011E00080FFF0BCBDE8008C2DE9804C9A46934608
:1011F00070B491E8380007C810F0804F08BF13F0B2
:10120000804F03D100F005F8FFF76BFFF0BCBDE89D
:10121000008C20F07F4780EA030023F07F4C07EB2F
:101220000C03A3F57C5300F00040A3F1FE0392F001
:10123000000F00F0B38095F0000F00F077802DE9EB
:1012400001494FEA11404FEA144621EA004800FBE9
:1012500006FC24EA064708FB06F607FB08F800FB35
:1012600007F718EB06484CEB164C4FEA124B18EBFD
:1012700007484FEA15464CEB174022EA0B4E0BFB92
:1012800006FC25EA06470EFB06F607FB0EFE0BFBE7
:1012900007F71EEB064E4CEB164C4FF000061EEB0C
:1012A000074E4CEB174B18EB0B0840F1000018EB06
:1012B0000E0B58EB000840F100008F1A4FF00001B0
:1012C0003CBFC943661B14BFB5EB040C00213CBFF7
:1012D000C943F61B4FEA17444EEA8E0E27EA04452F
:1012E0004FEA1C4704FB07622CEA074C05FB07F793
:1012F0000CFB05F604FB0CFC16EB074642EB174211
:1013000016EB0C4642EB1C421BEB060658EB0202A6
:10131000414146EA9E0601D5BDE80189B619524110
:1013200041EB0101A3F10103BDE801894FEA144536
:101330004FEA114724EA054621EA074C05FB07F46A
:1013400006FB07F70CFB06F105FB0CFC11EB074154
:1013500044EB17444FEA124711EB0C4144EB1C4499
:1013600022EA074C05FB07F206FB07F70CFB06F623
:1013700005FB0CFC16EB074642EB174216EB0C463E
:1013800042EB1C456A1854F1000148BF7047B6197A
:10139000524141EB0101A3F10103704795F0000FA9
:1013A00037D04FEA11424FEA144721EA024624EAB5
:1013B000074C02FB07F106FB07F70CFB06F402FBE8
:1013C0000CFC14EB074441EB17414FEA154714EBB3
:1013D0000C4441EB1C4125EA074C02FB07F506FBD8
:1013E00007F70CFB06F602FB0CFC16EB074645EB79
:1013F000174516EB0C4645EB1C42121951F1000142
:1014000048BF7047B619524141EB0101A3F10103F6
:1014100070474FEA14454FEA114724EA054621EA8E
:10142000074C05FB07F106FB07F70CFB06F24FF034
:10143000000605FB0CFC12EB074241EB174112EBD7
:101440000C4251EB1C4148BF7047921841EB01011F
:10145000A3F10103704700003EB5282000F00CFB0B
:101460004FF0FF34012301AA70210B48009400F0D3
:10147000D5FC9DF8040000070CD408A003230068E5
:10148000029002AA70210094034800F0EFFD0A20A8
:1014900000F0F2FA3EBD000014000020BE0800007B
:1014A0007FB5054624A00C4600684FF0FF36039038
:1014B000032303AA70210096204800F0D7FD502096
:1014C00000F0DAFA062301AA70211C48009600F009
:1014D000A5FC9DF8040000062CD49DF807009DF89B
:1014E0000610000900EB01109DF8051000EB01301B
:1014F00002F032FE124902F043FE6FF0130631464D
:1015000002F0B3FF20609DF807009DF80810000767
:10151000000B00EB01209DF80910084402F01CFEAE
:10152000084902F02DFE314602F09FFF064902F005
:10153000F3FE28607FBD0000AC33000014000020E3
:101540000000C8420000484300004842FEE77047E0
:1015500070B58EB0002557A16846FEF747FE684675
:10156000FEF757FF82B26E1E33466946544801F0BB
:10157000F4FC41F2883000F07FFA5148006840687E
:1015800050A16846FEF732FE6846FEF742FF82B27F
:10159000334669464A4801F0E0FC032400F0A6F90E
:1015A00068B14DA16846FEF721FE6846FEF731FF9F
:1015B00082B233466946424801F0CFFC10E049A1AF
:1015C0006846FEF713FE6846FEF723FF82B23346F5
:1015D00069463B4801F0C1FC0125641E002CDDDC9E
:1015E00043A16846FEF702FE6846FEF712FF82B28C
:1015F000344633466946324801F0AFFC00F01AF930
:1016000068B140A16846FEF7F1FD6846FEF701FFAC
:1016100082B2234669462A4801F09FFC0DE03CA1B6
:101620006846FEF7E3FD6846FEF7F3FE82B2234606
:101630006946234801F091FC012538A16846FEF770
:10164000D5FD6846FEF7E5FE82B2234669461C4892
:1016500001F083FC00F028F970B135A16846FEF76F
:10166000C5FD6846FEF7D5FE82B22346694614489A
:1016700001F073FCE5B10CE031A16846FEF7B6FD60
:101680006846FEF7C6FE82B2234669460C4801F062
:1016900064FC2FA16846FEF7A9FD6846FEF7B9FE77
:1016A00082B223466946064801F057FC0EB070BD71
:1016B0002FA1EFE7E7AD89E5BE852E2E2E0D0A009E
:1016C000B0000020E6B58BE8AF954154E68C87E486
:1016D000BBA4200D0A0000004154204F4B200D0AEE
:1016E000000000004154204572726F72200D0A0004
:1016F000E8AEBEE7BDAE4150E6A8A1E5BC8F200D27
:101700000A0000004150204F4B200D0A000000004D
:101710004150204572726F72200D0A00E590AFE5CE
:101720008AA8E69C8DE58AA1E599A8200D0A00000B
:10173000536572766572204F4B200D0A0000000041
:10174000536572766572204572726F72200D0A00C1
:10175000455350E5889DE5A78BE58C96E5A4B1E857
:10176000B4A5EFBC81EFBC81EFBC810D0A00000085
:10177000455350E5889DE5A78BE58C96E5AE8CE654
:101780008890EFBC810D0A0000B599B0024609A10E
:101790006846FEF72BFD6846FEF73BFE82B24FF42B
:1017A0007A736946044801F0D8FB642000F064F9BC
:1017B00019B000BD25730A00B000002030B58DB00F
:1017C0000546FEF726FE0446642000F055F9224641
:1017D0000EA16846FEF70AFD6846FFF7D5FF6420B4
:1017E00000F04AF92846FFF7CFFF0CA16846FEF744
:1017F000FDFC6846FEF70DFE82B24FF0FF336946EE
:101800000B4801F0AAFB0DB030BD000041542B4342
:10181000495053454E443D302C256400E695B0E6D2
:101820008DAEE5B7B2E58F91E98081200D0A000009
:10183000B000002000B5A1B009A0FFF7A5FF062069
:1018400000900AA30CA20FA101A8FEF7CFFC01A8EB
:10185000FFF79AFF11A0FFF797FF21B0012000BD0D
:1018600041542B43574D4F44453D320031323334C0
:10187000353637380000000053544D33325F415045
:101880000000000041542B43575341503D22257323
:10189000222C222573222C25642C330041542B4307
:1018A00049504D55583D310000B58DB041F690720C
:1018B00008A16846FEF79AFC6846FFF765FF40F608
:1018C000B83109A000F022F8002800D001200DB0A6
:1018D00000BD000041542B434950534552564552D8
:1018E0003D312C25640000004F4B000010B505A0D1
:1018F000FFF74AFFBDE810404FF47A7102A000F0F4
:1019000005B80000415400004F4B00002DE9F043A2
:10191000B3B00F468146C8216846FEF799FD002402
:1019200000F0B2F90546A0466E4622E032230122BD
:1019300032A9134801F0B8FAD8B9C72C19D29DF8CA
:10194000C8003055641CA4B2494606F804806846B5
:10195000FEF74DFD18B1012033B0BDE8F08309A1B9
:101960006846FEF744FD48B908A16846FEF73FFD0A
:1019700020B900F089F9401BB842D7D30020EBE72B
:10198000B00000204552524F520000004641494CE1
:101990000000000072B6FEE710B590F8211000229A
:1019A000022905D00421816380F82020012010BD88
:1019B00001680B6823F00E030B6001680B6823F0CD
:1019C00001030B6090F84030C46B012101FA03F36E
:1019D000636080F8211080F82020104610BD0000C0
:1019E00010B590F821100024022903D0042181634E
:1019F00001243DE001680A6822F00E020A600168D5
:101A00000A6822F001020A601A4A0168914201D173
:101A1000012121E0174A1432914201D110211BE02B
:101A2000144A2832914201D1891515E0114A3C32FD
:101A3000914201D189140FE00E4A5032914202D1F5
:101A40004FF4803108E00B4A6432914202D14FF4E6
:101A5000801101E04FF08071064A083A516001217F
:101A600080F82110002180F82010416B01B18847D7
:101A7000204610BD0800024070B5044600F004F98D
:101A80000546601C02D004480078044400F0FCF8CD
:101A9000401BA042FAD370BD040000202DE9F84F8E
:101AA000DFF8B8910024A9F1040B23460F2709F1B0
:101AB000040AABF1040EC9E00125A5402A40AA4260
:101AC0007DD1674ED1F804C0ACEB0608B44532D0E6
:101AD00014DCBCF1030F3AD009DCBCF1000F2AD0B2
:101AE000BCF1010F1CD0BCF1020F31D11DE0BCF1E3
:101AF000110F17D0BCF1120F2AD119E0B8F5881FC9
:101B000019D006DCB8F5803F15D0B8F5801F1FD17D
:101B100011E0B8F5001F0ED0B8F5041F18D10AE087
:101B2000CB6815E0CB681B1D12E0CB6808330FE0D3
:101B3000CB680C330CE08B682BB1012B4FF0080302
:101B400003D0456104E0042302E0056100E00023C6
:101B5000FF2A01D8064601E000F104064FEA840599
:101B600001D9A5F12005D6F8008007FA05FC28EA7E
:101B70000C0803FA05F548EA0508C6F800804D6828
:101B8000ED0062D5374DAE6946F00106AE61AD6934
:101B900024F0030605F001050095334D06EB050C16
:101BA000DCF80850A607360F07FA06F825EA0805FC
:101BB000DFF8B880404503D14FF0000817E044E05B
:101BC000DFF8AC80404502D14FF001080FE0DFF8AC
:101BD000A480404502D14FF0020808E0DFF8988069
:101BE000404502D14FF0030801E04FF0040808FA25
:101BF00006F848EA0508CCF808804D68D9F8006076
:101C0000ED024D4601D5164300E096432E604D6827
:101C1000DAF80060AD02554601D5164300E0964360
:101C20002E604D68DBF80060AD035D4601D51643BC
:101C300000E096432E604D68DEF80060ED037546C7
:101C400001D5164300E096432E60641C0D682A46B9
:101C5000E5407FF431AFBDE8F88F00000804014093
:101C60000000111000100240000001400008014077
:101C7000000C014000100140001401400AB1016154
:101C800070470904FBE700000148806870470000C6
:101C90000400002070B5040025D094F83D00002514
:101CA00020B984F83C50204600F076FA242084F8CD
:101CB0003D002068016821F0010101602068016891
:101CC00041F4004101602068016821F40041016095
:101CD00000F0BEFB4D4A6168914201D84C4900E0DA
:101CE0004C49884201D2012070BD4B492368B0FBAA
:101CF000F1F15E6826F03F060E435E606368934232
:101D000006D94FF4967359434FF47A73B1FBF3F14C
:101D10002368491C1E6A26F03F0631431962616838
:101D2000914210D84900401EB0FBF1F2521CC2F3A0
:101D30000B02042A01D2042022E0B0FBF1F0401C87
:101D4000C0F30B001CE0A268F2B301EBC10303EB8C
:101D50000116431EB3FBF6F35B1C43F480431B05E3
:101D600049D092B301EBC10202EB0111401EB0FB5E
:101D7000F1F0401CC0F30B0040F4804040F4004000
:101D80002168CA694CF6FF739A431043C861D4E9CD
:101D9000071001432068026822F0C002114301606D
:101DA000D4E9030101432068826848F2FF339A4373
:101DB00011438160D4E9050108432168CA6822F013
:101DC000FF021043C86001E00EE016E020680168E1
:101DD00041F0010101602564202084F83D00256365
:101DE00084F83E50002070BD01EB4106431EB3FB5A
:101DF000F6F35B1CB3E70120C2E701EB4101401E93
:101E0000B0FBF1F0401CC0F30B00B7E7A086010067
:101E100080841E0000093D0040420F002DE9F84F6C
:101E20000025DDF82890984617468A460446009516
:101E3000FFF72AFF064694F83D0020287AD119239F
:101E4000012286492046009601F0E0F90028F5D1EC
:101E500094F83C0001286DD0012084F83C002068F3
:101E60000168C90703D1016841F0010101602068E0
:101E7000016821F400610160222084F83D001020F7
:101E800084F83E0025646762A4F82A80608D20856E
:101E90007348E06233464A465146204601F0C6F890
:101EA00000287CD1208DDFF8BC81202768B1012873
:101EB00014D00228206801681ED041F480610160BE
:101EC0002068416980690090BBE0206841698169B0
:101ED0000091016841F400710160B2E0206801687E
:101EE00021F48061016072B62068416981690091C6
:101EF000016841F400710AE041F40061016072B6CA
:101F00002068416981690091016821F48061016064
:101F100062B696E0032865D801280CD002284B460B
:101F20004FF000024146204600960BD001F06EF9BA
:101F3000A8BB0CE090E032464946204601F00CFA7E
:101F400068BB71E001F062F948BB72B633E020680B
:101F5000016821F48061016072B620680069616ADD
:101F60000870606A401C6062208D401E2085608D74
:101F7000401E60853C4846F2A8110068B0FBF1F0B5
:101F8000C0EBC00000EB80000090401E009007D026
:101F900020684069C04340070DD50098F5E727E069
:101FA00044F8305F6773A573206940F0200020611A
:101FB00062B625731CE02068016841F4007101607D
:101FC00020680069616A0870606A401C6062218D47
:101FD000491E2185618D491E618562B621680969A6
:101FE000017025E032464946204601F0B5F910B1AE
:101FF0000120BDE8F88F20680069616A0870606A96
:10200000401C6062208D401E81B22185608D401E83
:10201000608520684269D243520712D4032903D154
:10202000016821F48061016020680069616A0870BC
:10203000606A401C6062208D401E2085608D401EBD
:102040006085208D00287FF465AF84F83D7084F8AA
:102050003E5084F83C50CCE70220CAE70200100052
:102060000000FFFF04000100100000202DE9F84FE0
:102070001F4690468A460446DDF82890FFF704FE86
:10208000054694F83D0020287FD1192301224049BC
:102090002046009501F0BAF8002876D194F83C006B
:1020A000012872D0012084F83C0020680168C9072B
:1020B00003D1016841F0010101602068016821F449
:1020C00000610160212084F83D00102084F83E006A
:1020D00000262664C4F824806785608D20852D48FD
:1020E000E0622B464A465146204601F015F890B969
:1020F000206841698069009036E02A4649462046BA
:1021000001F062F950B1206C042804D12068016804
:1021100041F4007101600120BDE8F88F606A216818
:1021200000780861606A401C6062618D491E6185AB
:10213000218D491E89B2218522685369DB435B07E3
:102140000BD451B100781061606A401C6062608DF0
:10215000401E6085208D401E20852A464946204627
:1021600001F028F80028CED1208D0028C5D154F8E0
:102170003D0B016841F400710160202004F81E0944
:10218000E67766770020C7E7FFE70220C4E7000094
:10219000020010000000FFFF10B586B00021009182
:1021A00001910291039100680F4988421AD10F4CA6
:1021B000A06940F00800A061A069694600F008002D
:1021C0000490C02000901220019003200390084842
:1021D000FFF764FCE06940F40010E061E06900F49E
:1021E0000010049006B010BD0054004000100240E2
:1021F000000C0140024881680278114481607047F8
:1022000004000020074810B5016841F0100101608A
:10221000032000F075F80F2000F006F800F024F815
:10222000002010BD0020024070B50D4D04464FF453
:102230007A712878B1FBF0F00A490968B1FBF0F037
:1022400000F0E8FA48B9102C07D200222146501EAF
:1022500000F036F800206C6070BD012070BD0000F9
:1022600004000020100000200C4808B5816941F0EE
:1022700001018161816901F001010091C16941F0B1
:102280008051C161C06900F08050009004484168ED
:1022900021F0E06141F00071416008BD0010024092
:1022A00000000140002809DB00F01F0201219140DD
:1022B0004009800000F1E020C0F8001170470000E4
:1022C000F0B40E4B1B680C46C3F30223C3F10705A1
:1022D000042D00D90425191D072901D2002300E08F
:1022E000DB1E012606FA05F1491E214099409E4059
:1022F000761E16403143F0BC01F0FDBC0CED00E051
:10230000064900F0070208684FF6FF03184040EA4C
:102310000220034A10430860704700000CED00E003
:102320000000FA052DE9F0470F46050061D0434E45
:10233000306800F00700B84209D2306820F007008A
:1023400038433060306800F00700B84251D1286847
:102350003B4C810712D5400703D5606840F4E0602C
:1023600060602878000703D5606840F460506060C2
:102370006068A96820F0F000084360602878C00712
:1023800028D06868012810D02168022810D0890759
:1023900000292EDA616821F0030101436160FFF733
:1023A00073FC804641F288390DE021688903EFE72C
:1023B0008901EDE7FFF768FCA0EB0801494502D968
:1023C0000320BDE8F0876068696800F00C00B0EB9E
:1023D000810FEFD1306800F00700B8420BD93068A8
:1023E00020F0070038433060306800F00700B84242
:1023F00001D00120E5E72878400705D56068E96845
:1024000020F4E060084360602878000706D5606823
:10241000296920F4605040EAC100606000F038F89B
:102420006168084AC1F30311515CC840064908605D
:1024300006480068FFF7F8FE0020C2E700200240CF
:1024400000100240F844000810000020080000209E
:102450000448054900684968044AC1F30221515CF7
:10246000C8407047100000200010024008450008D6
:102470000448054900684968044AC1F3C221515C17
:10248000C8407047100000200010024008450008B6
:102490000E4A51680E4801F00C03042B11D0082B92
:1024A0000FD10C48C1F38343C903C05C0AD55168FE
:1024B000084AC1F34041921E515C054A5043B0FBAB
:1024C000F1F0704704494843704700000010024093
:1024D00000127A00E844000800093D002DE9F84F99
:1024E000040070D02078C04DC00749D06868C0F3A0
:1024F0008100012807D06868C0F38100022809D153
:102500006868C00306D52868800339D5606800284C
:10251000E7D035E06068B0F5803F0BD010B1B0F582
:10252000A02F11D0286820F480302860286820F47B
:10253000802002E0286840F480302860606890B114
:10254000FFF7A2FB06460AE0286840F480202860D6
:10255000F0E700BFFFF798FB801B642873D828685A
:102560008003F7D50CE0FFF78FFB064605E000BFC0
:10257000FFF78AFB801B6428F0D828688003F7D413
:1025800020789A4E80074FF001094FF0000839D5A6
:10259000686810F00C0F07D06868C0F3810002284B
:1025A00009D16868C00306D42868800714D520695B
:1025B000012808D110E02069B0B1C6F80090FFF7FB
:1025C00063FB074605E00AE1FFF75EFBC01B02283C
:1025D000C4D828688007F7D52868616920F0F8001A
:1025E00040EAC10028600DE0C6F80080FFF74CFB10
:1025F000074604E0FFF748FBC01B022823D82868E1
:102600008007F7D4207800072CD57948A169D9B183
:10261000C0F80090FFF738FB074604E0FFF734FBF3
:10262000C01B02280FD8686A8007F7D571484FF49D
:10263000FA510068B0FBF1F0009000BF0098411E15
:102640000091FAD20EE080E0C0F80080FFF71CFB9A
:10265000074604E0FFF718FBC01B022875D8686A1C
:102660008007F7D42078400760D5E8690027C000CC
:1026700008D4E86940F08050E861E869012700F07B
:10268000805000905C480168C90513D401688346F6
:1026900041F480710160FFF7F7FA824606E000BF5F
:1026A000FFF7F2FAA0EB0A0064284ED8DBF800002E
:1026B000C005F5D5E06801280AD008B1052813D077
:1026C000286A20F001002862286A20F0040002E055
:1026D000286A40F001002862E06841F2883B98B126
:1026E000FFF7D2FA82460BE0286A40F00400286225
:1026F000EEE700BFFFF7C8FAA0EB0A0159455AD828
:10270000286A8007F6D50CE0FFF7BEFA824605E09E
:10271000FFF7BAFAA0EB0A0159454CD8286A80079E
:10272000F6D41FB1E86920F08050E861E06988B311
:102730006968C1F38101022944D00228C6F860808B
:1027400004D0FFF7A1FA044638E034E0FFF79CFA22
:10275000074604E0FFF798FAC01B02282BD8286828
:102760008001F7D4206AB0F5803F05D16868A16880
:1027700020F4003008436860D4E908010843696820
:1027800021F4741108436860C6F86090FFF77CFA82
:10279000044606E025E000BFFFF776FA001B02289A
:1027A00009D828688001F7D51BE000BFFFF76CFA55
:1027B000001B022802D90320BDE8F88F2868800199
:1027C000F4D40EE00128F7D06868226A00F4803162
:1027D000914204D1616A00F47010884201D0012056
:1027E000EAE70020E8E70000001002400000424253
:1027F0008004424210000020007000404FF0E021B1
:102800000428086903D020F004000861704740F0F4
:102810000400FAE710B5401EB0F1807F01D301201B
:1028200010BD4FF0E02460610F21601701F063FAE2
:102830000020A06107202061002010BD7047704774
:1028400070B590F83C20012A26D0012480F83C4045
:10285000022280F83D2003685A689D6822F07006C5
:102860000A6832435A600D4B02689A4208D0B2F1AE
:10287000804F05D00A4B9A4202D00A4B9A4204D1AB
:10288000496825F080031943916080F83D4000219C
:1028900080F83C10084670BD022070BD002C01403D
:1028A000000400400008004010B5040003D094F874
:1028B0003D0010B107E0012010BD002084F83C006D
:1028C000204600F01FF8022084F83D00211D2068FA
:1028D00001F05EF8012084F8460084F83E0084F898
:1028E0003F0084F8400084F8410084F8420084F8F6
:1028F000430084F8440084F8450084F83D0000203B
:1029000010BD000008B50068B0F1804F12D10A4830
:10291000C16941F00101C161C069002200F00100FC
:10292000009011461C20FFF7CBFCBDE808401C209E
:10293000FFF7B8BC08BD00000010024070B50446A7
:1029400090F83C000025012817D0012684F83C604F
:10295000022084F83D002068826822F0770222F489
:102960007F4282600868502838D00DDC20284FD084
:1029700005DC90B3102811D14AE0022070BD302848
:1029800046D040280AD13BE060282FD070280DD0D7
:10299000B0F5805F03D0B0F5005F12D0012584F858
:1029A0003D60002084F83C00284670BDCB68D1E92A
:1029B0000121206801F028F82068816841F0770142
:1029C00009E0CB68D1E90121206801F01DF82068F9
:1029D000816841F480418160E1E719E0CA68496893
:1029E000206801F023F85021206806E0CA68496891
:1029F000206801F02CF86021206801F00FF8CEE784
:102A0000CA684968206801F011F840212068F4E79D
:102A1000226801461046F0E770472DE9F041044670
:102A20000068C66805694FF00007A90713D5B1070C
:102A300011D5F91E01610120207720688069800787
:102A4000204602D0FFF7E8FF04E000F07EF82046C1
:102A500000F07CF82777680716D5700714D5216831
:102A60006FF004000861022020772068806910F46C
:102A7000407F204602D0FFF7CFFF04E000F065F86A
:102A8000204600F063F82777280715D5300713D5BF
:102A900021686FF008000861042020772068C06971
:102AA0008007204602D0FFF7B7FF04E000F04DF8A2
:102AB000204600F04BF82777E80616D5F00614D527
:102AC00021686FF010000861082020772068C06935
:102AD00010F4407F204602D0FFF79EFF04E000F094
:102AE00034F8204600F032F82777E80708D0F007DE
:102AF00006D021686FF001000861204600F027F839
:102B0000280608D5300606D521686FF080000861D8
:102B10002046FFF793FE680608D5700606D52168A3
:102B20006FF040000861204600F012F8A8060AD5B0
:102B3000B00608D521686FF0200008612046BDE886
:102B4000F041FFF77CBEBDE8F081704770477047E9
:102B50007047704770470000F8B501680446086880
:102B6000CA684B6910F00F0F4FF0000559D003F001
:102B7000010602F49077374365D0C10705D0D1052F
:102B800003D5616C41F001016164410705D5D907A6
:102B900003D0616C41F002016164810705D5D9075A
:102BA00003D0616C41F004016164010707D502F0B4
:102BB0002001314303D0616C41F008016164616C14
:102BC00000293AD0800604D5900602D5204600F0B0
:102BD0007FFF20684069616CC0F38010090700D452
:102BE00060B3204600F04DFF20684069400621D5C3
:102BF0002068143050E8001F21F0400140E8001226
:102C0000002AF5D1E06BA8B16D494163E06BFEF796
:102C1000E7FE002811D0E06B416B01B0BDE8F04049
:102C2000084783060FD593060DD52046BDE8F8402A
:102C300000F04EBF2046FFF78DFFF8BD2046FFF79E
:102C400089FF6564F8BD266B2023012E7CD1C60662
:102C50007AD5D60678D508684868009048694FF05C
:102C60000206400640D5E16B086840680004000C8D
:102C7000E8D0A28D8242E5D9E085886920282DD050
:102C800020680C3050E8001F21F4807140E80012E9
:102C9000002AF5D12068143050E8001F21F001010E
:102CA00040E80012002AF5D12068143050E8001FD7
:102CB00021F0400140E80012002AF5D184F84230AA
:102CC000256320680C3050E8001F21F0100140E817
:102CD0000012002AF5D1E06BFEF75EFE6663A08D60
:102CE000E18D401A81B22AE0A08DE18D401A81B2B7
:102CF000E08D0028A6D00029A4D022680C3252E82A
:102D0000000F20F4907042E80007002FF5D12068F2
:102D1000143050E8002F22F0010240E80027002F75
:102D2000F5D184F84230256320680C3050E8002F3C
:102D300022F0100240E80023002BF5D16663204604
:102D4000FFF707FFF8BDFFE705062BD5150629D5C8
:102D500094F841002128F5D1A068B0F5805F01D139
:102D60002069B0B1206A411C216221680078486066
:102D7000E08C401E0004000CE084E3D12068C168B0
:102D800021F08001C1602068C16841F04001C1604C
:102D9000D8E7206A0088C0F308004860206A801CD9
:102DA0002062E5E74006CDD55006CBD5CA6820465F
:102DB00022F04002CA6084F8413000F01EF9C1E7F9
:102DC000733A000870B5040004D094F8410000255F
:102DD00010B106E0012070BD84F84050204600F09C
:102DE00023F8242084F841002068C16821F40051B0
:102DF000C160204600F0CEFE2068016921F49041B8
:102E000001612068416921F02A0141612068C1689F
:102E100041F40051C1606564202084F8410084F8C9
:102E200042006563002070BD30B585B00024009479
:102E30000194029403940068184988422BD11848E1
:102E4000C16941F40031C161C16901F400310491EB
:102E5000816941F0040181618069124D00F0040034
:102E60000490042000900220019003200390694602
:102E70002846FEF713FE0820CDE9000469462846DF
:102E80000294FEF70BFE002211462620FFF718FAE7
:102E90002620FFF707FA05B030BD000000440040CF
:102EA00000100240000801402DE9F84F044690F858
:102EB00042009A4616460D46202802D00220BDE860
:102EC000F88FB5B1AEB100206064222184F84210C1
:102ED0002063FEF7D9FEA6858146E685A0684FF4FB
:102EE00080582027404501D1206920B12E46002579
:102EF00029E00120E3E7002625E04B4600222021BF
:102F00002046CDF800A000F0A1FE18B184F8427070
:102F10000320D4E726B1A06840451AD038B108E0B4
:102F200020684068C0F3080025F8020B08E020691B
:102F300078B12068406800F07F0000BF06F8010B00
:102F4000E08D401EE085E08D0028D6D184F84270E7
:102F5000B5E720684068F1E770472DE9F84304467B
:102F600090F84100984616460D46202802D00220CF
:102F7000BDE8F88385B17EB100206064212084F82B
:102F80004100FEF781FEA6848146E684A0682027E2
:102F9000B0F5805F02D003E00120E9E7206910B1BD
:102FA0002E4600250EE000260CE08021204600F091
:102FB0004DFEA8B9C6B116F8010B21684860E08C37
:102FC000401EE084E08C4B464FF00002CDF80080BC
:102FD0000028EAD14FF04001204600F037FE40B112
:102FE00084F841700320C3E735F8020BC0F30800F2
:102FF000E3E784F841700020BAE77047FEE7016814
:103000004A69D24352050FD46FF480624A610021AD
:1030100040F8301F202242738173026942F004029B
:103020000261017301207047002070472DE9F84FBD
:103030000446C06A1E4693460D4621680A6842F45B
:1030400080620A60082807D0012805D010F5803F6B
:1030500002D0206B112804D12068016841F48071EE
:1030600001604FF001195B46002249462046009658
:1030700000F0CCF84FF4007840B120680068C0053B
:1030800001D5C4F840800320BDE8F88F2069DFF83F
:1030900084A0B0F5804F0FD00620216800EAD51734
:1030A00047F0F000086133465A460AF1060120460F
:1030B00000F0F4F858BB03E0E8B240F001001CE077
:1030C0002168E8B2086133465A465146204600F06E
:1030D000E5F8E0B92068416981690091016841F42F
:1030E000807101605B46002249462046009600F050
:1030F0008DF80028C1D147F0F100216808613346FE
:103100005A465146204600F0C9F80028BCD001209C
:10311000BAE7000002000100F8B50446C06A1E4686
:103120000D461746082807D0012805D010F5803F26
:1031300002D0206B122804D12068016841F480710C
:103140000160134600224FF001112046009600F066
:103150005DF840B120680068C00502D54FF40070EA
:1031600020640320F8BD2069B0F5804F0ED0062002
:10317000216800EAD51040F0F000086133463A4675
:103180000B49204600F08AF878B902E005F0FE000D
:1031900000E0E8B221680861054933463A46891FD4
:1031A000204600F07BF80028DCD00120F8BD0000AC
:1031B0000800010070B516460D4604461EE0204684
:1031C000FFF71DFF08B1012070BD681C16D0FEF787
:1031D0005BFD801BA84200D885B920684069C043C8
:1031E00040070BD5002044F8300F20216173A073F5
:1031F000216941F0200121612073E4E720684069E2
:10320000C0434007DBD4002070BD00002DE9F0472B
:10321000984617460D460446C1F30746DDF8209050
:103220002AE000BFB8F1FF3F26D0FEF72DFDA0EB4E
:103230000901414502D8B8F1000F1DD12068012EC7
:1032400016D0806925EA00000004000C12D000208E
:10325000B84211D1002044F8300F20216173A073CF
:10326000216941F02001216120730120BDE8F08730
:103270004069E7E70120EBE72068012E0AD080696A
:1032800025EA00000004000C06D00020B842C9D096
:103290000020EBE74069F3E70120F7E72DE9F0476D
:1032A000984616460D4604464FF000094FF0200A96
:1032B000C1F3074723E020684069C043400515D4A7
:1032C0002068016841F40071016021686FF480603A
:1032D0004861C4F8309084F83DA084F83E90216C99
:1032E00041F00401216484F83C9021E0701C06D078
:1032F000FEF7CAFCA0EB0800B04203D816B1012FBC
:103300001FD021E02068012F15D0806925EA000038
:103310000004000C18D000BF44F8309F84F80DA0C2
:1033200084F80E90216941F02001216184F80C900D
:103330000120BDE8F087406925EA00000004000C88
:10334000EAD12068406901E02068806925EA000030
:103350000004000CAFD1ECE72DE9F04100259046C8
:103360000E460446202728E04069C043C0060CD41E
:1033700054F8301B6FF01000486144F8105967771B
:10338000A577206A2062257714E0FEF77DFCA0EB8C
:103390000800B04200D886B920684069C0434006A2
:1033A0000BD544F8305F6773A573206940F02000A7
:1033B000206125730120BDE8F08120684169C9437F
:1033C0004906D1D40020F6E770B516460D460446EE
:1033D0001EE02046FFF713FE08B1012070BD681CF7
:1033E00016D0FEF751FC801BA84200D885B9206892
:1033F0004069C04300060BD5002044F8300F20215F
:103400006173A073216941F0200121612073E4E719
:1034100020684069C0430006DBD4002070BDFEB5C3
:10342000002200920192029246784FF0010C730143
:103430002033DBB28DF80030047814B143F0100370
:1034400001E023F010038DF80030C478DBB204F003
:10345000030443EA84038DF8003007791FB143F079
:1034600002038DF8003083792BB19DF8003043F0D2
:1034700001038DF8003083781D461B018DF8013063
:103480008DF80220C4790CB18DF802C043798020F8
:103490000BB18DF803009DF803C08DF804004CF0CB
:1034A000140C8DF803C0C0200FB18DF804002BB1AF
:1034B0009DF8047047F001078DF8047040F010008B
:1034C0008DF805008DF806208DF8072014B1022034
:1034D0008DF8070070190C38C0B20BB1401CC0B297
:1034E0000CB1401CC0B200F00F04002318465B066C
:1034F0001D0E24FA00F303F00103401C2B43C0B25D
:103500000428F4D39DF8070003F00F0318438DF847
:1035100007008DF8082000206A46135C0B54401CFD
:10352000C0B20928F9D3FEBD1CB500208DF80000FB
:1035300001218DF8011018218DF802108DF803007B
:103540000190684600F08CF81CBD1CB501208DF878
:1035500000008DF8010018208DF8020000208DF881
:1035600003000190684600F07BF81CBD30B585B0C3
:10357000002002900D48816941F004018161806959
:103580004FF4807400F0040004900120CDE9004065
:103590000320074D039069462846FEF77FFA002274
:1035A00021462846FEF76AFB05B030BD00100240F8
:1035B000000801401CB500208DF8000001218DF8A5
:1035C000011018218DF802108DF803000190684653
:1035D00000F07DF81CBD1CB501208DF800008DF8B1
:1035E000010018208DF8020000208DF803000190E2
:1035F000684600F06CF81CBD10B501004FF40C706B
:1036000004D000F00BF840F29A6003E0044600F0AA
:1036100005F82046BDE8104000F0C8B82DE9F0419B
:103620001A21B0FBF1F500244FF480770B4E10E027
:10363000012239463046FEF721FB0D2000F094FBB5
:10364000002239463046FEF719FB0D2000F08CFBB6
:10365000641CAC42ECD3BDE8F081000000080140DE
:103660002DE9FE4F6946FFF7DAFE002642F22839BF
:1036700041F2941A6F464FF009084846FFF7CEFF13
:10368000504600F093F800250024785DC4F107014E
:10369000C84000F00100FFF7AFFF641CE4B2082C43
:1036A000F3D36D1CEDB24545EED34FF40C70FFF72C
:1036B000B5FF6C2000F04AFB022E02D20A2000F077
:1036C00045FB761CF6B2032ED4D3BDE8FE8F2DE960
:1036D000FE4F23218DF80010CB218DF801102621FB
:1036E0008DF80210012100238DF803108DF80430AD
:1036F00044786A46012C01D18DF80410817801F0DC
:103700000F0141F020018DF80510C17849018DF8B5
:103710000610007818B108208DF8070001E08DF838
:10372000073000210846135C401C1944C0B2C9B2DE
:103730000828F8D31172002640F6165B4FF4D779AB
:103740006F464FF009085C465846FFF767FF204672
:1037500000F02CF8002540F2145A0024785DC4F1E2
:103760000701C84010F0010F484603D0FFF756FF8D
:10377000504602E0FFF752FF484600F017F8641C7D
:10378000E4B2082CEAD36D1CEDB24545E5D34846BA
:10379000FFF744FF022E02D2282000F0D7FA761C51
:1037A000F6B2032ECCD3BDE8FE8F000010B5044660
:1037B00000224FF480710448FEF760FA2046BDE80D
:1037C000104000F0D1BA00000008014070B586B08A
:1037D000002418480094019402940394816941F0F4
:1037E00020018161816901F020010491816941F02A
:1037F00004018161816901F004010491816941F052
:10380000080181618069012200F008000A4E15025A
:10381000049029463046FEF731FA01200095CDE9A3
:1038200001040320039069463046FEF737F906B0DD
:1038300070BD000000100240000801400D4810B5A6
:103840000B4901600C49416000214FF480428160C6
:10385000C0E9031241618161C1610162FEF71AFA98
:10386000002803D0BDE81040FEF794B810BD00005A
:103870000054004014000020A086010010B586B05E
:1038800000241648009401940294039404944FF089
:103890008041059401604721C0E901144FF6FF7192
:1038A000C0E903148461FEF7FFFF08B1FEF772F868
:1038B0004FF48050009069460848FFF73FF808B180
:1038C000FEF768F8049404A904480594FEF7B8FFCD
:1038D000002801D0FEF75EF806B010BD6800002099
:1038E0000C4810B50A4901604FF4E13141600021F4
:1038F00081600C22C160C0E904128161C161FFF7DF
:1039000061FA002803D0BDE81040FEF743B810BDAF
:1039100000440040B0000020FEE7FEE7704770471B
:10392000FEF768BC30B58FB028216846FCF790FDE3
:1039300014210AA8FCF78CFD01210804CDE9001030
:103940000024029402250491CDE907504FF4E010C1
:1039500009906846FEF7C2FD08B172B6FEE70F2077
:10396000CDE90A054FF48060CDE90C4002210AA898
:103970000E94FEF7D7FC002801D072B6FEE70FB018
:1039800030BD70470148FFF748B8000068000020CC
:10399000F0B50268194B1A4C1A4D4FF08047984207
:1039A00005D0B84203D0A04201D0A84203D122F0F2
:1039B00070064A683243984205D0B84203D0A0420C
:1039C00001D0A84203D122F44074CA6822434C6952
:1039D00022F08002224302608A68C2620A68826220
:1039E000984201D109690163012141610169C90757
:1039F00003D0016921F001010161F0BD002C0140FB
:103A0000000400400008004010B5846842EA032228
:103A100024F47F440A432243826010BD826822F06E
:103A200070020A4342F007018160704710B5036AD3
:103A3000046A24F001040462846924F0F00444EA76
:103A4000021423F00A020A438461026210BD10B519
:103A5000036A046A24F010040462846923F0A0035A
:103A600024F4704444EA023243EA011182610162A3
:103A700010BD10B5406A0021C185C184FFF76AF806
:103A800010BD01680C3151E8002F22F4907241E81A
:103A90000023002BF5D10168143151E8002F22F0EA
:103AA000010241E80023002BF5D1016B012909D166
:103AB00001680C3151E8002F22F0100241E8002388
:103AC000002BF5D1202180F84210002101637047BE
:103AD00008B590F84210222901D0022008BD826862
:103AE0004FF480539A4201D1016921B1816A9A420F
:103AF0001BD04AB10AE00268816A5268C2F3080228
:103B00000A80816A891C08E0026972B10268526801
:103B100002F07F020A70816A491C8162C18D491ED0
:103B20000904090CC18503D01BE002685268F1E763
:103B30000168CA6822F02002CA600168CA6822F4DB
:103B40008072CA6001684A6922F001024A6120213C
:103B500080F8421000214163026B012A03D0FFF775
:103B6000FBF9002008BD016301680C3151E8002F0A
:103B700022F0100241E80023002BF5D101680A6809
:103B8000D20602D50A6849680091818DFEF7E1FFEF
:103B9000E7E7000070B5044600680169E26821F4B7
:103BA0004051114301612169A068084361690843DC
:103BB0002168CA6841F20C639A430243CA602068D4
:103BC0004169A26921F44071114341611E49206895
:103BD000884202D1FEF74CFC01E0FEF739FC00EB15
:103BE000C00101EB0012606864218000B2FBF0F3B9
:103BF000B3FBF1F36FF018067343B2FBF0F5B2FBC1
:103C0000F0F605EB8305322303EB0515B5FBF1F563
:103C1000B6FBF1F605F0F00505EB0615B2FBF0F684
:103C2000B2FBF0F0B0FBF1F06FF01802504306EB7E
:103C3000800003EB0010B0FBF1F0216800F00F00F2
:103C40002844886070BD0000003801402DE9F84329
:103C5000984617460D460446089E24E0701C22D064
:103C6000FEF712F8A0EB0800B0421AD8CEB12068D7
:103C7000C168490717D5802D15D0402D13D0016894
:103C8000C94309070FD40168002540680090204609
:103C9000FFF7F7FE0820606484F840500120BDE87B
:103CA000F8830320FBE72068006835EA000004D0B1
:103CB0000020B842D2D00020F1E70120F9E700004F
:103CC0000148FEF749BF0000B0000020FEE74900B0
:103CD00050EAC12018BF04204A0D18BF40F001006F
:103CE00040F2FF72B2EB515F08BF40F002000128C2
:103CF00008BF052070470907090E002804DB00F102
:103D0000E02080F80014704700F00F0000F1E02080
:103D100080F8141D704730380A2801D201207047FE
:103D20000020704710B504460420FEF767FD0648E2
:103D300004EB4401C1EBC4114FF6FF72047002EAB8
:103D4000C101418010BD00000000002070B5054693
:103D500000244FF47A7603E0304600F005F8641C46
:103D6000AC42F9D370BD000070B54FF0E0240022E2
:103D700065690949A36909784843A1699942FCD05A
:103D800002D2A3EB010302E0A5EB010633441A447F
:103D90000B468242F1D370BD0000002092B0FEF7C6
:103DA00031FAFFF7BFFDFFF711FDFFF747FDFFF702
:103DB00065FDFFF795FDFDF74FFB00264820FFF757
:103DC000B1FFFFF7D3FBFFF7C0FB51A102A8FCF73F
:103DD0000DFA02A8FCF71DFB82B2771E3B4602A932
:103DE0005148FFF7BAF8FDF7B3FBDFF844A1DFF85D
:103DF0003C914FEAD72B6FEA0A0810A90FA8FDF7EC
:103E00004FFB109800F014F904460D460F9800F08F
:103E10000FF902460B4647A102A8CDE90045FCF781
:103E2000E5F902A8FCF7F5FA82B23B4602A93E4842
:103E3000FFF793F80F99494515DBFFF786FB4FF421
:103E4000FA60FDF719FEFFF7C6FB42A102A8FCF7D6
:103E5000CDF902A8FCF7DDFA82B23B4602A932484E
:103E6000FFF77BF801260F99514459450CD23DA12B
:103E700002A8FCF7BBF902A8FCF7CBFA82B23B46DA
:103E800002A92948FFF769F80F9C444516DCFFF7A3
:103E90004BFB4FF4FA60FDF7EFFDFFF78BFB34A10E
:103EA00002A8FCF7A3F902A8FCF7B3FA82B23B46DA
:103EB00002A91D48FFF751F8002610E07EB11098C6
:103EC00000F0B6F805462046009100F0B1F80B4628
:103ED00000990246CDE9005129A102A80DE01098F1
:103EE00000F0A6F804460D460F9800F0A1F802462F
:103EF0000B4632A102A8CDE90045FCF777F902A8EC
:103F0000FDF75CFC41F28830FDF7B6FD75E7000077
:103F1000455350E5889DE5A78BE58C96E4B8AD2E1A
:103F20002E2E0D0A00000000B00000200000D0413D
:103F3000FFFF4FBEE6B8A9E5BAA63A252E3166E2E4
:103F400084832CE6B9BFE5BAA63A252E3166202532
:103F5000250D0A00E7A9BAE8B083E5BC80200D0A68
:103F600000000000E4BF9DE68C81200D0A000000E7
:103F7000E7A9BAE8B083E585B3200D0A0000000088
:103F8000E5BD93E5898DE78AB6E68081EFBC9AE7C7
:103F9000A9BAE8B083EFBC9AE5BC802CE6B8A9E5E5
:103FA000BAA63A252E3166E284832CE6B9BFE5BA7B
:103FB000A63A252E31662025250D0A00E5BD93E59C
:103FC000898DE78AB6E68081EFBC9AE7A9BAE8B0A6
:103FD00083EFBC9AE585B32CE6B8A9E5BAA63A25E5
:103FE0002E3166E284832CE6B9BFE5BAA63A252EC7
:103FF00031662025250D0A0010B500290AD0087861
:10400000002807D005487844FCF716FE002801D0A8
:10401000002010BD0248784410BD0000BE0500001D
:10402000B60500000808A0F500114FEA31017047FD
:1040300043004FEAD30C4FEA3C0C43401FBF4007FC
:104040000CF1605113F0FE4F70471CF0006F03D16C
:1040500000200CF0004170470CF0004343EA507020
:1040600010B540EACC0000F00CF900BF000000924F
:104070004FEA0001FFF7D6BF4FF000414FF00000BC
:10408000A1F500217047000090EA010F48BF81F0C0
:10409000004100F14881421A3CBF801A89184FEA5A
:1040A000D0524FF07F4C1CEA410FA2EBD15318BF06
:1040B0009CEA026F00F03B804FF0004C4CEA00207D
:1040C0004CEA012121FA03FC10EB0C0C1ED202F188
:1040D000FF325FEA1C2040EBC25038BF70471CF033
:1040E0007F0F4FEA400C18BFBCF17F4F38BF7047BD
:1040F000C3F12003994008BF20F00100BCF17F4FBD
:1041000038BF7047A0F1C04000F001B94FEA3C0051
:10411000000A40EBC25028BF1CF0FF0F4FEA400CD2
:10412000E6D018BFBCF17F4F38BF7047EAE79CEA82
:10413000026F05D010EA5C0F08BF00F00040704726
:1041400010B500F09EF800BF64FBBE3E014800F0D1
:104150005AB900BF0000C07FB0FA80F310FA03F232
:10416000C3F19D030AD0D90501EB1220530638BFD5
:10417000704700F1010008BF20F001007047000007
:104180004FF47F0C1CEAD0121EBF1CEAD11392EA36
:104190000C0F93EA0C0F00F0478090EA010F48BF24
:1041A00042F480724FF0004C4CEA00204CEA0121AE
:1041B00002EB0302A0FB0113A2F50002002918BFC5
:1041C00043F001035B0028BF4FEA330342EB224276
:1041D0005FEA132C4CEBC2502EBFBCEB436FB2F521
:1041E0007C0F70474FEA036CBCF1004F08BF20F012
:1041F0000100B2F57C0F38BF70470BD582F0FF028B
:1042000012F5803FC8BF704700F1C040D8BF00F032
:104210000040704700F5000C5FEA4C0C48BF704747
:10422000B0F1C04000F073B890EA010F0CEAD1136E
:1042300048BF42F48072624538BF634504D280EAC9
:10424000010000F00040704710B500F01AF800BF00
:104250008900013E00F007B800F009B85FEA410CA0
:104260005FEA1C6C08D080EA010000F050B85FEAF9
:10427000400C5FEA1C6CF6D14FF00040A0F58000C6
:1042800070470EF1020E2EF0030E5EF8044B24422E
:1042900004D44FEA4102B2F17F4F11D84FEA4003F4
:1042A000B3F17F4F0CD80ED14FEAD07CB2F17F4FE3
:1042B0000CEB4C0C0CF1020C08BF4CEBD17C04E075
:1042C0004FF0080C01E04FEAD17C0CEB4C0324FAD0
:1042D00003F404F00704B4F1040C06D20EEB840CD2
:1042E000BDE810404CF0010C6047DFE80CF0070817
:1042F00002024FF00040A0F5800010BD08464200C9
:1043000018BFD2F1807288BF00F0004010BDFF21BD
:1043100041EAD050C005704790EA010F48BF81F0D4
:1043200000413FF5B8AE421A04D882F00042A0EB3B
:10433000020011444FEAD0524FF07F4C1CEA410F6B
:10434000A2EBD15318BF9CEA026F4AD04FF0004C49
:104350004CEA00204CEA012121FA03FCB0EB0C0CE2
:104360000FD412F0FE0F36D05FEA4C001DD50012BC
:1043700040EBC25038BF70471CF03F0F18BF70476A
:104380000BE0A2F101025FEA1C2040EBC25038BFF3
:1043900070471CF07F0F18BF7047C3F1200399408E
:1043A00014BF401E20F00100704780084FEA12231E
:1043B00008BF7047B0FA80FCA2EB0C02CCF1280CCD
:1043C00060FA0CF093EA122F04BF00EBC250704762
:1043D0004FEAC3707047130A5FEADC1008BF7047EA
:1043E000F6E79CEA026F04D010EA5C0F08BF0020D9
:1043F000704710B5FFF745FF40DFF63E81F0004003
:104400007047FCF781B90CF00F03092B08BF082097
:1044100000F051800A2B0BD0082B18BF704708BF43
:104420001CF0400F0AD04FF000004FF00001704721
:104430001CF0400F18BF4FF0004070471CF0100FE9
:1044400008D020F0704300F07F4242EAD3014FEAE7
:104450004370704700F0604021F07F4242EA000262
:1044600001F07F4040EA727070474FF0FF0212EA9D
:10447000D0521CBF92F0FF038B42C2BFD14200EB6F
:10448000C1507047002A0AD0002B0BD0002900F041
:104490000040A4BF40F0FE4040F40000704700F030
:1044A0000040704743024FF00B0C18BF4CF0806C7B
:1044B0007FF44CAE70471CF4801F11D01CF4E02F29
:1044C00003D06FEACC31490070474FF04050EFF312
:1044D000008222F0704242EA000282F300887047B4
:1044E0004FF00000704701020203040506070809A7
:1044F0000A0B0C0D0E0F1010000000000000000051
:104500000102030406070809000000000102030479
:1045100002400000000000A0000000000540000074
:10452000000000C8000000000C4000000000409C9B
:1045300000000000194000000020BCBE0000000088
:1045400034400000BFC91B8E00000004B5400000CD
:10455000504BCFD06607E2CF010000006C41000055
:104560003E8251AADFEEA73401000000D9420000CC
:10457000DCB5A0E23A301F97FFFFFFFFB445000013
:10458000FD25A0C8E9A3C14FFFFFFFFFFF3F0000CB
:104590000000008000000000FF3F000000000080DD
:1045A00000000000E04500080000002014000000AA
:1045B00028010008F445000814000020440700000A
:1045C000440100081C00000043000000F8FFFFFF4A
:1045D0000C0000000E0000000F0000002E00000084
:1045E00000000000010000001000000000000000BA
:0445F00000127A003B
:04000005080000ED02
:00000001FF
